:020000040800F2
:1000000000000220DD060008190600081B06000893
:100010001D0600081F060008210600080000000059
:10002000000000000000000000000000230600089F
:100030002506000800000000270600082906000821
:100040002D0700082D0700082D0700082D070008C0
:100050002D0700082D0700082D0700082D070008B0
:100060002D0700082D0700082D0700082D070008A0
:100070002D0700082D0700082D0700082D07000890
:100080002D0700082D0700082D0700082D07000880
:100090002D0700082D0700082D0700082D07000870
:1000A0002D0700082D0700082D0700082D07000860
:1000B0002D0700082D0700082D0700082D07000850
:1000C0002D0700082D0700082D0700082D07000840
:1000D0002D0700082D0700082D0700082D07000830
:1000E0002D0700082D0700082D0700082D07000820
:1000F0002D0700082D0700082D0700082D07000810
:100100002D0700082D0700082D0700082D070008FF
:100110002D0700082D0700082D0700082D070008EF
:100120002D0700082D0700082D0700082D070008DF
:100130002D07000800000000000000002D07000847
:100140002D0700082D0700082D0700082D070008BF
:100150002D0700082D0700082D0700082D070008AF
:100160002D0700082D0700082D0700082D0700089F
:100170002D0700082D070008000000000000000007
:080180002D0700082D070008FF
:1001880010B5054C237833B9044B13B10448AFF3C9
:1001980000800123237010BD3C04002000000000F3
:1001A8004C18000808B5034B1BB103490348AFF3CB
:1001B800008008BD00000000400400204C18000822
:1001C80053B94AB9002908BF00281CBF4FF0FF31B6
:1001D8004FF0FF3000F074B9ADF1080C6DE904CEB2
:1001E80000F006F8DDF804E0DDE9022304B070470A
:1001F8002DE9F047089E0D4604468846002B4DD150
:100208008A42944668D9B2FA82F252B101FA02F3EC
:10021800C2F1200120FA01F10CFA02FC41EA0308BC
:1002280094404FEA1C45210CB8FBF5FE1FFA8CF7E9
:1002380005FB1E8341EA03430EFB07F199420BD9E4
:100248001CEB03030EF1FF3080F01E81994240F24F
:100258001B81AEF1020E63445B1AA4B2B3FBF5F046
:1002680005FB103344EA034400FB07F7A7420AD909
:100278001CEB040400F1FF3380F00881A74240F230
:10028800058164440238E41B40EA0E4000211EB197
:10029800D4400023C6E90043BDE8F0878B4208D963
:1002A800002E00F0EE800021C6E900050846BDE8F2
:1002B800F087B3FA83F100294AD1AB4202D38242D4
:1002C80000F2F980841A65EB030301209846002E9A
:1002D800E2D0C6E90048DFE702B9FFDEB2FA82F2EF
:1002E800002A40F09180A1EB0C054FEA1C471FFA49
:1002F8008CFE0121B5FBF7F307FB1350250C45EAEB
:1003080000450EFB03F0A84208D91CEB050503F1D4
:10031800FF3802D2A84200F2CB8043462D1AA4B27D
:10032800B5FBF7F007FB105544EA05440EFB00FE49
:10033800A64508D91CEB040400F1FF3502D2A645F6
:1003480000F2BB802846A4EB0E0440EA03409EE777
:10035800C1F120078B4022FA07FC4CEA030C20FA73
:1003680007F405FA01F31C43FD404FEA1C4900FA63
:1003780001F3B5FBF9F8200C1FFA8CFE09FB1855A0
:1003880040EA054508FB0EF0A84202FA01F20BD933
:100398001CEB050508F1FF3A80F08880A84240F27E
:1003A8008580A8F1020865442D1AA4B2B5FBF9F0BE
:1003B80009FB105544EA054500FB0EFEAE4508D979
:1003C8001CEB050500F1FF346CD2AE456AD9023842
:1003D800654440EA0840A0FB0294A5EB0E05A5423F
:1003E800C846A64656D353D05EB1B3EB080265EBB8
:1003F8000E0505FA07F722FA01F3CD401F43C6E9B7
:1004080000750021BDE8F087C2F1200320FA03F14E
:100418000CFA02FC25FA03F395400D434FEA1C47FA
:100428001FFA8CFEB3FBF7F107FB11302B0C43EAE4
:10043800004301FB0EF0984204FA02F408D91CEBC1
:10044800030301F1FF382FD298422DD902396344B2
:100458001B1AADB2B3FBF7F007FB103345EA0345AF
:1004680000FB0EF3AB4208D91CEB050500F1FF3881
:1004780016D2AB4214D902386544ED1A40EA01415C
:1004880038E73146304607E78646E5E61846FAE695
:100498004B45A9D2B9EB020864EB0C0E0138A3E76F
:1004A8004046EAE7204694E74146D1E7D0467BE755
:1004B800023B654432E7084609E76444023842E7EC
:1004C800704700BF82B0002100910B4B1A6B42F0BD
:1004D80080021A631A6B02F080020092009A01915E
:1004E8001A6B42F001021A631B6B03F001030193BC
:1004F800019B02B0704700BF0038024072B6FEE7A9
:1005080000B595B03022002108A801F0D9F80023E1
:10051800039304930593069307930193204A116C60
:1005280041F080511164126C02F080520192019ADC
:1005380002931C4B1A6842F480421A601B6803F449
:1005480080430293029B012308934FF4803309935D
:1005580002220E924FF480030F9304231093A821D4
:1005680011911292139308A800F01CFB98B90F235D
:10057800039302230493002305934FF4A053069397
:100588004FF480530793052103A800F0F3FD20B929
:1005980015B05DF804FBFFF7B1FFFFF7AFFF00BF31
:1005A800003802400070004008B5002304E0013321
:1005B800074A002142F82310B3F5806FF7DB00F0FB
:1005C800D9F8FFF79DFFFFF77DFF00F02FF8FEE752
:1005D800000000107047000082B0002100910B4B12
:1005E8005A6C42F480425A645A6C02F48042009277
:1005F800009A01911A6C42F080521A641B6C03F045
:1006080080530193019B02B0704700BF003802403D
:10061800FEE7FEE7FEE7FEE7FEE770477047704734
:1006280008B500F0C1F808BD7047000008B50A48D1
:100638000A4B03604FF4E133436000238360C360D7
:1006480003610C2242618361C36100F081FF00B93C
:1006580008BDFFF753FFFBE75804002000100140D6
:1006680000B589B000230393049305930693079379
:10067800026803F1804303F588339A4202D009B037
:100688005DF804FB0021019103F594335A6C42F0A4
:1006980010025A645A6C02F010020192019A0291F7
:1006A8001A6B42F001021A631B6B03F001030293F9
:1006B800029B4FF4C063039302230493032306931E
:1006C8000723079303A9024800F0F8F8D7E700BF0B
:1006D80000000240DFF834D00D480E490E4A0023CE
:1006E80002E0D458C4500433C4188C42F9D30B4ADE
:1006F8000B4C002301E013600432A242FBD3FFF746
:1007080093FF00F0B9FFFFF74FFF7047000002208A
:10071800000000203C040020201A00083C040020AF
:10072800A4040020FEE7000010B504460E4B18781C
:100738004FF47A73B3FBF0F30C4A1068B0FBF3F094
:1007480000F0A8F868B90F2C01D901200AE00022AE
:1007580021464FF0FF3000F057F8054B1C60002091
:1007680000E0012010BD00BF0400002000000020B0
:100778000800002008B50B4B1A6842F400721A6092
:100788001A6842F480621A601A6842F480721A6029
:10079800032000F01BF80F20FFF7C6FFFFF71CFF30
:1007A800002008BD003C0240034A1168034B1B7837
:1007B8000B441360704700BF9C0400200400002015
:1007C800014B1868704700BF9C04002010B5044610
:1007D800C31E042B0FD80A4AD36823F4E0631B0412
:1007E8001B0C240204F4E064234343F0BF6343F486
:1007F8000033D36010BD90210248FFF7EBFEEAE713
:1008080000ED00E07C18000870B505460C46164659
:100818000F2A25D80F2C28D81B4BDB68C3F30223DB
:10082800C3F10701042928BF04211A1D062A21D96A
:10083800033B4FF0FF3202FA01F124EA01049C4025
:1008480002FA03F326EA03063443002D14DB2401DD
:10085800E4B205F1604505F5614585F8004370BDD2
:10086800A8210A48FFF7B6FED4E7A9210748FFF7F1
:10087800B1FED1E70023DCE705F00F052401E4B25F
:10088800034B5C55EBE700BF00ED00E07C18000867
:1008980014ED00E00138B0F1807F0BD24FF0E02377
:1008A8005861054AF02182F8231000209861072238
:1008B8001A6170470120704700ED00E02DE9F04112
:1008C80082B007460E46544B984223D003F5806306
:1008D80098421FD003F5806398421BD003F58063CC
:1008E800984217D003F58063984213D003F58063CC
:1008F80098420FD003F5806398420BD003F58063CC
:10090800984207D003F58063984203D0AC2143484E
:10091800FFF760FE33689AB212B11B0C1B041BB1BF
:10092800AD213E48FFF756FE7368012B19D9112BEC
:1009380017D0022B15D0122B13D0B3F5881F10D067
:10094800B3F5041F0DD0B3F5441F0AD0B3F5901FBB
:1009580007D0B3F5081F04D0B3F5481F01D0032B07
:1009680001D1002492E0AE212C48FFF733FEF8E7CE
:10097800F368032B13D8BA68610003238B4022EA7B
:100988000302F3688B401343BB607A6822EA0502CE
:100998007368C3F30015A54015437D6087E0C02147
:1009A8001E48FFF717FEE6E7D1211C48FFF712FEA5
:1009B80086E03369BBB1092B15D0012B13D0022B6C
:1009C80011D0032B0FD0042B0DD0052B0BD0062BE9
:1009D80009D0072B07D0082B05D00A2B03D00C2BE6
:1009E80001D00F2B10D1E208083257F8220004F08A
:1009F800070399000F238B4020EA030033698B40DB
:100A0800034347F822306BE0DE210448FFF7E2FD9C
:100A1800E9E7072305E000BF00000240E0180008EE
:100A280000238B40034302325A4941F822305A4B83
:100A38009A686FEA080322EA0801706810F4801FB8
:100A480001D048EA0201544A9160D26803EA0201DF
:100A5800706810F4001F01D048EA02014E4AD160C4
:100A6800526803EA0201706810F4003F01D048EAB6
:100A78000201494A516012681340716811F4803FBD
:100A880001D048EA0203444A136001340F2C7ED88F
:100A98000125A540336803EA050835EA0303F4D1C4
:100AA800736803F00303013B012B7FF661AF7368A2
:100AB80003F00303032B0DD0B368022B3FF674AF8A
:100AC800FA68610003238B4022EA0302B3688B4073
:100AD8001343FB60736803F00303022B3FF469AF11
:100AE8003A68610003238B4022EA0302736803F02B
:100AF80003038B4013433B60736813F4403FC4D037
:100B080000230193254B5A6C42F480425A645B6C73
:100B180003F480430193019BA208911C1D4B53F8D9
:100B2800210004F0030399000F238B4020EA0300FF
:100B38001B4B9F423FF474AF03F580639F421AD06A
:100B480003F580639F4218D003F580639F4216D057
:100B580003F580639F4214D003F580639F4212D04F
:100B680003F580639F4210D003F580639F423FF4F2
:100B780050AF082355E7012353E7022351E7032326
:100B88004FE704234DE705234BE7062349E702B067
:100B9800BDE8F08100380140003C014000380240C7
:100BA80000000240002800F05D8270B582B0044663
:100BB80003680F2B39D8236813F0010F4DD06368F1
:100BC8002BB1B3F5803F02D0B3F5A02F32D1804BC3
:100BD8009B6803F00C03042B36D07D4B9B6803F015
:100BE8000C03082B2BD06368B3F5803F5FD0B3F5B7
:100BF800A02F62D0764B1A6822F480321A601A68E5
:100C080022F480221A606368002B60D0FFF7D8FDB9
:100C180005466F4B1B6813F4003F1ED1FFF7D0FD4C
:100C2800401B6428F5D9032023E2E6216948FFF731
:100C3800D1FCC0E7EB216748FFF7CCFCC7E7644B62
:100C48005B6813F4800FCED0614B1B6813F4003F30
:100C580003D06368002B00F00782236813F0020FAB
:100C680066D0E368012B41D823691F2B44D8584B21
:100C78009B6813F00C0F4AD0554B9B6803F00C038C
:100C8800082B3FD0E368002B77D0534B01221A6022
:100C9800FFF796FD05464E4B1B6813F0020F63D114
:100CA800FFF78EFD401B0228F5D90320E1E1484AF1
:100CB800136843F480331360A5E7454B1A6842F480
:100CC80080221A601A6842F480321A609BE7FFF7A4
:100CD80077FD05463E4B1B6813F4003FBDD0FFF778
:100CE8006FFD401B6428F5D90320C2E140F21D11B5
:100CF8003848FFF76FFCB7E74FF48F713548FFF7B7
:100D080069FCB4E7324B5B6813F4800FBAD1304BFF
:100D18001B6813F0020F03D0E368012B40F0A68193
:100D28002B4A136823F0F803216943EAC1031360CF
:100D3800236813F0080F51D06369012B2FD863691A
:100D48009BB3254B0122C3F8802EFFF739FD0546DA
:100D58001F4B5B6F13F0020F40D1FFF731FD401BB3
:100D68000228F5D9032084E1194A136823F0F8030F
:100D7800216943EAC1031360DAE7174B00221A60BE
:100D8800FFF71EFD0546124B1B6813F0020FCFD06C
:100D9800FFF716FD401B0228F5D9032069E14FF43F
:100DA800AF710C48FFF716FCC9E70B4B0022C3F8DC
:100DB800802EFFF705FD0546054B5B6F13F0020F0C
:100DC8000CD0FFF7FDFC401B0228F5D9032050E1A9
:100DD800003802404419000800004742236813F015
:100DE800040F7CD0A368012B01D9052B38D1A44B63
:100DF8001B6C13F0805F39D100230193A04B1A6C50
:100E080042F080521A641B6C03F080530193019BDB
:100E180001259C4B1B6813F4807F29D0A368012B04
:100E28003AD0052B3ED0964B1A6F22F001021A6772
:100E38001A6F22F004021A67A368002B3CD0FFF750
:100E4800BFFC06468E4B1B6F13F0020F45D1FFF710
:100E5800B7FC801B41F288339842F3D9032008E19C
:100E68004FF4C5718848FFF7B5FBC0E70025D0E708
:100E7800844A136843F480731360FFF7A1FC0646A5
:100E8800804B1B6813F4807FC8D1FFF799FC801B47
:100E98000228F5D90320ECE0794A136F43F00103E7
:100EA8001367C9E7764B1A6F42F004021A671A6F84
:100EB80042F001021A67BFE7FFF782FC0646704B53
:100EC8001B6F13F0020F08D0FFF77AFC801B41F26A
:100ED80088339842F3D90320CBE0002D3BD1A36996
:100EE800022B3ED8A369002B00F0C280644A9268A6
:100EF80002F00C02082A00F09080022B79D1E369F5
:100F080013B1B3F5800F32D1236A3F2B35D8636A0A
:100F1800323BB3F5BF7F36D8A36A022B05D0042B2A
:100F280003D0062B01D0082B33D1E36A023B0D2BEB
:100F380035D8564B00221A66FFF742FC0546504B3F
:100F48001B6813F0007F30D0FFF73AFC401B0228E3
:100F5800F5D903208DE04A4A136C23F080531364BB
:100F6800BDE740F2CD114848FFF734FBBAE74FF42C
:100F7800EB714548FFF72EFBC6E740F2D711424810
:100F8800FFF728FBC3E74FF4EC713F48FFF722FB5C
:100F9800C2E740F2D9113C48FFF71CFBC5E74FF404
:100FA800ED713948FFF716FBC3E7E369226A13437B
:100FB800626A43EA8213A26A5208013A43EA024388
:100FC800E26A43EA02632E4A5360304B01221A66F2
:100FD800FFF7F6FB04462A4B1B6813F0007F06D187
:100FE800FFF7EEFB001B0228F5D9032041E00020A3
:100FF8003FE0264B00221A66FFF7E2FB0446204B2F
:101008001B6813F0007F06D0FFF7DAFB001B0228ED
:10101800F5D903202DE000202BE0012B2BD0184B15
:101028005B6803F48001E269914226D103F03F0234
:10103800216A8A422CD1616A47F6C0721A40B2EB23
:10104800811F27D103F44031A26A5208013AB1EB5B
:10105800024F21D103F07063E26AB3EB026F1DD136
:10106800002006E001207047012002E0012000E096
:10107800002002B070BD0120FBE70120F9E700BFA6
:101088000038024000700040441900080000474240
:101098000120EEE70120ECE70120EAE70120E8E77C
:1010A80008B5314B9B6803F00C03042B57D0082B71
:1010B80057D12D4B5A6802F03F025B6813F4800F3A
:1010C8002AD0294B5968C1F3881C4FEA4C11B1EB5F
:1010D8000C006EEB0E0E4FEA8E1343EA906381010B
:1010E800091A63EB0E03DB0043EA5173C90011EBE5
:1010F8000C0C43F10003590200234FEA4C2041EA4B
:10110800DC51FFF75DF8184B5B68C3F3014301330B
:101118005B00B0FBF3F025E0134B5968C1F3881C62
:101128004FEA4C11B1EB0C006EEB0E0E4FEA8E132A
:1011380043EA90638101091A63EB0E03DB0043EA7B
:101148005173C90011EB0C0C43F100039902002301
:101158004FEA8C2041EA9C51FFF732F8D3E7034865
:1011680000E0034808BD00BF0038024000127A00C2
:101178000024F400002800F0F78070B50D460446FE
:101188000368013B0E2B6BD8072D6FD87A4B1B6871
:1011980003F00703AB4208D2EBB2774A1370136827
:1011A80003F00703AB4240F0E180236813F0020F1D
:1011B80029D013F0040F04D0704A936843F4E05325
:1011C8009360236813F0080F04D06C4A936843F4C3
:1011D80060439360A3687BB1802B0DD0902B0BD01C
:1011E800A02B09D0B02B07D0C02B05D0D02B03D013
:1011F800E02B01D0F02B3FD1604A936823F0F00335
:10120800A1680B439360236813F0010F4ED0636805
:10121800032B37D86368012B3AD09A1E012A3ED98E
:10122800564A126812F0020F00F0A28053498A68E9
:1012380022F0030213438B60FFF7C2FA06464F4BB6
:101248009B6803F00C036268B3EB820F2ED0FFF7A4
:10125800B7FA801B41F288339842F0D9032076E030
:1012680040F25A214648FFF7B5F98DE740F25B2175
:101278004348FFF7AFF989E740F27E214048FFF77E
:10128800A9F9B9E740F285213D48FFF7A3F9C1E77D
:101298003A4A126812F4003FC8D1012057E0374A91
:1012A800126812F0007FC1D1012050E0324B1B6858
:1012B80003F00703AB4207D9EAB22F4B1A701B6839
:1012C80003F00703AB4255D1236813F0040F14D081
:1012D800E3685BB1B3F5805F08D0B3F5A05F05D0D4
:1012E800B3F5C05F02D0B3F5E05F31D1234A93680C
:1012F80023F4E053E1680B439360236813F0080F6D
:1013080015D023695BB1B3F5805F08D0B3F5A05F52
:1013180005D0B3F5C05F02D0B3F5E05F1ED1174A20
:10132800936823F46043216943EAC1039360FFF79C
:10133800B7FE124B9B68C3F30313124AD35CD84021
:10134800114B1860114B1868FFF7EEF9002070BDBB
:1013580040F2C3210A48FFF73DF9C7E740F2CA2126
:101368000748FFF737F9DAE7012070470120EEE771
:101378000120ECE70120EAE7003C02400038024087
:101388004419000864180008000000200800002024
:10139800014B1868704700BF0000002008B5FFF730
:1013A800F7FF044B9B68C3F38223034AD35CD840FE
:1013B80008BD00BF003802407418000808B5FFF7E0
:1013C800E7FF044B9B68C3F34233034AD35CD8401E
:1013D80008BD00BF003802407418000838B504463C
:1013E8004268574B9A423FD8E36813B1B3F5005FA0
:1013F80040D123692BB1B3F5806F02D0B3F5C06F2C
:101408003ED163694FF6F372134200D123B940F617
:1014180064614C48FFF7DEF82268136923F44053EF
:10142800E1680B431361A36822691343626913439C
:10143800E2691A432168CB6823F4164323F00C03AE
:101448001343CB602268536923F44073A1690B43AB
:10145800536123683C4A934218D002F58062934254
:1014680014D0FFF79BFF13E040F661613548FFF7A2
:10147800B1F8B9E740F662613248FFF7ABF8B8E770
:1014880040F663612F48FFF7A5F8BAE7FFF796FF24
:10149800E369B3F5004F29D00021031849411B180F
:1014A80041F10001C90041EA5371DB001818636873
:1014B8004FEA83024FEA937341F10001FEF780FE81
:1014C800224DA5FB00325109642303FB11031B01C4
:1014D8003233A5FB03235B0903F0F00202EB011290
:1014E80003F00F03216813448B6038BD00230218F2
:1014F80043EB0301121841F10001C90041EA52719E
:10150800D200101841F10001626892185B41FEF7A1
:1015180057FE0E4DA5FB00325109642303FB11034E
:10152800DB003233A5FB03235B095A0002F4F8728F
:1015380002EB011203F00703216813448B60D4E720
:10154800A037A000A4190008001001401F85EB5126
:10155800002800F08B8010B504468369002B55D015
:101568000368434A934210D0A2F54C4293420CD0F0
:1015780002F58062934208D002F54C42934204D0AF
:1015880040F273113B48FFF725F8A36943B1B3F55F
:10159800807F05D0B3F5007F02D0B3F5407F2FD10F
:1015A800A36813B1B3F5805F4ED1E36913B1B3F506
:1015B800004F4FD194F83D30002B51D0242384F8AC
:1015C8003D302268D36823F40053D3602046FFF7E8
:1015D80005FF2268136923F4904313612268536955
:1015E80023F02A0353612268D36843F40053D3607D
:1015F80000202064202384F83D3084F83E3010BD5C
:101608004FF4BA711B48FEF7E5FFC9E70368184AAB
:101618009342C5D0A2F54C429342C1D002F58062F4
:101628009342BDD002F580629342B9D002F5806240
:101638009342B5D002F544429342B1D04FF4BC7105
:101648000C48FEF7C7FFABE74FF4BD710948FEF73A
:10165800C1FFAAE740F27B110648FEF7BBFFA9E7E6
:1016680084F83C302046FEF7FBFFA7E701207047CF
:1016780000100140A419000870B50D4E0D4D761BE1
:10168800B61006D0002455F8043B01349847A6420A
:10169800F9D1094E094D761B00F0D4F8B61006D0E2
:1016A800002455F8043B01349847A642F9D170BD8F
:1016B800141A0008141A00081C1A0008141A000842
:1016C800830730B548D0541E002A3FD0CAB203461B
:1016D80001E0013C3AD303F8012B9D07F9D1032C13
:1016E8002DD9CDB245EA05250F2C45EA054536D951
:1016F800A4F1100222F00F0C03F1200EE6444FEA89
:10170800121C03F1100242E9045542E90255103255
:101718007245F8D10CF1010214F00C0F03EB021220
:1017280004F00F0C13D0ACF1040323F003030433CB
:10173800134442F8045B9342FBD10CF003042CB130
:10174800CAB21C4403F8012B9C42FBD130BD64464D
:101758001346002CF4D1F9E703461446BFE71A46AE
:10176800A446E0E7024B13B1024800F005B8704701
:10177800000000008D170008002301461A4618468D
:1017880000F01AB838B5084B084D5B1B9C1007D001
:10179800043B1D44013C55F804399847002CF9D105
:1017A800BDE8384000F054B8201A00081C1A000898
:1017B800704700BF704700BF2DE9F047DFF87CA0F5
:1017C8000646DAF8000098460F469146FFF7F0FF04
:1017D8001B4B1B68D3F8484124B365681F2D26DCD2
:1017E8005EB96B1C0235DAF80000636044F82570B6
:1017F800FFF7E0FF0020BDE8F08704EB8501012337
:10180800C1F88890D4F88821AB401A43022EC4F856
:101818008821C1F80881E4D1D4F88C211343C4F895
:101828008C31DEE703F5A674C3F84841D5E7DAF84A
:101838000000FFF7BFFF4FF0FF30DCE7380400205F
:10184800081A0008F8B500BFF8BC08BC9E467047E7
:0C185800F8B500BFF8BC08BC9E46704705
:10186400000000000000000001020304060708094C
:101874000000000001020304443A2F6974656D738B
:101884002F6A622F466F634472697665722F322E17
:101894006669726D776172652F466F63447269760B
:1018A40065722F447269766572732F53544D3332C7
:1018B400463478785F48414C5F4472697665722F8C
:1018C4005372632F73746D3332663478785F686152
:1018D4006C5F636F727465782E630000443A2F69FD
:1018E40074656D732F6A622F466F634472697665FF
:1018F400722F322E6669726D776172652F466F633F
:101904004472697665722F447269766572732F53D7
:10191400544D3332463478785F48414C5F447269A1
:101924007665722F5372632F73746D333266347815
:10193400785F68616C5F6770696F2E6300000000F8
:10194400443A2F6974656D732F6A622F466F63443E
:1019540072697665722F322E6669726D776172656F
:101964002F466F634472697665722F447269766597
:1019740072732F53544D3332463478785F48414C58
:101984005F4472697665722F5372632F73746D337B
:1019940032663478785F68616C5F7263632E6300CB
:1019A400443A2F6974656D732F6A622F466F6344DE
:1019B40072697665722F322E6669726D776172650F
:1019C4002F466F634472697665722F447269766537
:1019D40072732F53544D3332463478785F48414CF8
:1019E4005F4472697665722F5372632F73746D331B
:1019F40032663478785F68616C5F756172742E63E7
:081A04000000000010000020AA
:081A0C00ECE7FF7F0100000080
:081A14006D170008AD01000888
:041A1C008901000834
:101A20000024F4000100000010000000000000008D
:101A300000000000FC02002064030020CC03002012
:101A40000000000000000000000000000000000096
:101A50000000000000000000000000000000000086
:101A60000000000000000000000000000000000076
:101A70000000000000000000000000000000000066
:101A80000000000000000000000000000000000056
:101A90000000000000000000000000000000000046
:101AA0000000000000000000000000000000000036
:101AB0000000000000000000000000000000000026
:101AC0000000000000000000000000000000000016
:101AD0000000000000000000010000000000000005
:101AE0000E33CDAB34126DE6ECDE05000B000000CA
:101AF00000000000000000000000000000000000E6
:101B000000000000000000000000000000000000D5
:101B100000000000000000000000000000000000C5
:101B200000000000000000000000000000000000B5
:0C1E50000000000000000000A0040020C2
:101E5C000000000000000000000000000000000076
:101E6C000000000000000000000000000000000066
:101E7C000000000000000000000000000000000056
:101E8C000000000000000000000000000000000046
:04000005080006DD0C
:00000001FF
