:020000040800F2
:1000000010130020ED02000839790008157100086E
:1000100035790008592F0008958800080000000075
:100020000000000000000000000000006D7B0008E0
:100030001931000800000000A1790008717B000858
:100040000703000807030008070300080703000868
:100050000703000807030008070300080703000858
:100060000703000807030008070300080703000848
:100070000703000807030008070300080703000838
:100080005D2F00086D2F0008B12D00080703000840
:100090000703000807030008070300080703000818
:1000A0000703000807030008070300080703000808
:1000B00007030008070300080703000807030008F8
:1000C00007030008070300080703000807030008E8
:1000D00007030008070300088988000807030008D1
:1000E00007030008070300080703000807030008C8
:1000F00007030008417C0008070300080703000805
:1001000007030008070300080703000807030008A7
:100110000703000807030008070300080703000897
:1001200007030008070300087D2F000807030008E5
:10013000070300080000000000000000070300089B
:100140000703000807030008070300080703000867
:100150000703000807030008070300080703000857
:100160000703000807030008070300080703000847
:10017000070300080703000800000000000000005B
:10018000070300080703000800F002F800F09FF8DA
:100190000AA090E8000C82448344AAF10107DA45E2
:1001A00001D100F094F8AFF2090EBAE80F0013F095
:1001B000010F18BFFB1A43F0010318476C0101003F
:1001C0008C010100103A24BF78C878C1FAD85207D0
:1001D00024BF30C830C144BF04680C6070470000C1
:1001E0000023002400250026103A28BF78C1FBD840
:1001F000520728BF30C148BF0B6070476E2900F01E
:100200005582702900F08B8366290FF0838265295F
:100210000FF0808267290FF07D8261290FF07C82C8
:1002200003681B0A28BF41F08001692900F002829F
:10023000642900F0FF81752900F0FC816F2900F02E
:100240001983782900F05783E92900F0B382E42963
:1002500000F0B082F52900F0AD82EF2900F016839E
:10026000F82900F056830368DB0928BF41F08001BC
:10027000632901F04381732901F04881E32901F0EA
:100280005381F32901F05881002070471FB50FF00A
:10029000B2F99DE8030000F0A5FC01F00BFB04009F
:1002A000002000210EF0C8FE401C606000200021EC
:1002B0000EF0ACFEE06001F067F902F067FD1FBDD3
:1002C00010B5002001F02BFA01F0C7F910BD01F0C4
:1002D000C3FA1146FFF7DAFF0DF044FE01F0E8FF24
:1002E00003B4FFF7EDFF03BC01F0ACFA0948804707
:1002F00009480047FEE7FEE7FEE7FEE7FEE7FEE708
:10030000FEE7FEE7FEE7FEE704480549054A064B1F
:10031000704700002D7C000889010008100B0020A8
:1003200010130020100F0020100F00200FB40449FC
:1003300010B503AA029800F0CDF910BC5DF814FBCB
:10034000740000200B460146184600F00FBC401E0A
:10035000CAB210F8011F8A4202D00029F9D1002048
:10036000704740EA010370B59B072ED14FF001366C
:10037000042A2AD308C810C99D1B9D43121F15EAE1
:10038000C61517D0D8B2E1B2401A50EA056110D1B3
:1003900098B2A1B2401A50EA05410AD123F07F4039
:1003A00024F07F41401A50EA052102D1180EA0EB3B
:1003B000146070BDA342DBD018BA21BA884201D9BB
:1003C000012070BD4FF0FF3070BD0AB9002070BD34
:1003D00010F8013B11F8014B63B1A3420AD1521E40
:1003E00008D010F8013B11F8014B1BB1A34201D119
:1003F000521EEDD1181B70BD70477047704770B525
:10040000064600F0CBFB056806F10B0020F0070460
:10041000B4429CBF002070BD2B466A68BAB1106818
:10042000A04210D304F1080188423CBF50685860D4
:1004300007D35168101941601168091B01605860A9
:100440001460101D70BD13465268002AE7D1214682
:10045000284600F0B3FB0028DED170BD70B504461D
:10046000051F00F09BFB0068002C14BF446870BDA2
:10047000002C18BFAC423CBF20466468F8D301682A
:100480000A18AA4218BF456003D12A6805461144DC
:10049000016028684119A1421CBF6C6070BD616891
:1004A000696021680844286070BD2DE9F0479146D5
:1004B0000C46804600F072FB0768604234EA000098
:1004C00001D1042C02D20520BDE8F087601E40F067
:1004D000070609F10B0020F007054D4539D93B46C9
:1004E0007A6882B31468101D404206EA000C644525
:1004F00025D9A4EB0C00854221D8BCF1000F0BD00C
:10050000104601686244A1EB0C0111604168516022
:10051000C0F800C058600346116805F10800814228
:1005200005D35019491B016015605860034652F805
:10053000040F58600020C8F80020BDE8F08713467B
:100540005268002ACED12946384600F037FB0028F1
:10055000C5D10620BDE8F08710B500F027FB006884
:1005600010BD10B5044600F021FB046010BD70B54D
:10057000044685690068C10601D5302600E02026C2
:10058000C00707D070BDD4E9012130469047206AEA
:10059000401C20626D1EF6D570BD70B5044685699D
:1005A0000078C00707D170BDD4E901212020904711
:1005B000206A401C20626D1EF6D570BD09684A0590
:1005C00001D540B27047C905FCD500B27047096833
:1005D0004A0501D5C0B27047C905FCD580B2704745
:1005E00070B50C460546012A05D02878800600D54E
:1005F000EA69002302E0012305E05B1C934202D27A
:10060000E05C0028F9D1A869E618C01AA861286A38
:10061000184428622846FFF7AAFF04E0D5E9012123
:1006200014F8010B9047B442F8D32846FFF7B5FF02
:1006300070BD00002DE9F0410646002410687529C0
:10064000314616A510D0FFF7B9FF002802DA404264
:1006500013A507E031688A0701D512A502E0490712
:1006600004D511A5012401E0FFF7B1FF00210A2202
:1006700006F1240709E0B0FBF2FCB0FBF2F302FB49
:100680001C00303078541846491C0028F3D123460A
:100690002A463046BDE8F04100F028BB00000000CB
:1006A0002D0000002B0000002000000011680268EF
:1006B000006A530501D508700AE0D30501D508800A
:1006C00006E0130603D5C217C1E9000200E0086086
:1006D00001207047074B70B50D467B4400F0F1FEDA
:1006E0000446284600F04CFF10B14FF0FF3070BDBB
:1006F000204670BD87E800002DE9FF5F15468A4659
:100700000446DFF8AC80F8440027D8E900103E46E4
:10071000CDE9001010E03AF816106A4602A800F081
:10072000CFFF411C07D02178890603D5E26939182B
:1007300091420DD80744761C2078800602D5E069E6
:10074000B84205DDAE42E6DB3AF816000028E2D1F9
:10075000A069C01BA0612046FFF709FFD8E900107F
:10076000CDE90010002017E03AF818106A4602A8F8
:1007700000F0A6FFB0F1FF3F81460BD000250DF140
:10078000080B05E0D4E901211BF8050090476D1C1A
:100790004D45F7D308F10100B0428046E4DB206A02
:1007A000384420622046FFF7F8FEBDE8FF9F0000B6
:1007B00072F200002DE9F0418046D21D22F00702BE
:1007C0000025D2E90002F52915A614D0011E72F108
:1007D000000106DA0023D0EB030063EB020211A64E
:1007E00008E0D8F800108B0701D50FA602E04907F2
:1007F00001D50EA601251146002408F1240704E0C6
:1008000000F026FA30323A55641C50EA0102F7D162
:100810002B46324621464046BDE8F04100F066BA1C
:10082000000000002D0000002B0000002000000050
:1008300030B4002100F1240408E002F00705D208DA
:10084000303542EA4372DB086554491C52EA03051D
:10085000F3D10468002310A2250708D504F0200472
:100860000C4304D0C46901230CA2641EC46130BCD3
:1008700000F03CBA10B5044621461068FFF7A7FE09
:1008800002462046BDE810400023D1E7D21D22F0E9
:100890000701D1E90023CBE7000000003000000091
:1008A000F0B40D460188090502D5214C7C4402E0D4
:1008B0001F4C7C440E34002100F1240608E002F0B5
:1008C0000F071209E75D42EA03721B097754491CBE
:1008D00052EA0307F3D102780023120704D5702DE2
:1008E00006D009B1022311342246F0BC00F0FEB953
:1008F00001231034F8E770B504460D462146106810
:10090000FFF765FE024629462046BDE870400023F9
:10091000C6E7D21D22F00703D3E90023C0E703682E
:10092000126843F0200303600823C3610023B7E784
:10093000D4F000002DE9F05F894604464FF0000A2C
:10094000DFF874B1FB44C0F820A02046E168884776
:10095000002874D0252806D0D4E901219047206AC8
:10096000401C2062F1E700265F462046E168884788
:100970002028054607DB312D05D2781910F8200C08
:1009800008B10643F1E7B00701D526F00406C4F824
:100990001CA00027C4F818A02A2D09D028460EF064
:1009A000DAFA38B304EB8708303DC8F8185019E07C
:1009B00059F8041B204604EB87029161E1688847DF
:1009C000012F054618D1E069002820DA26F020061C
:1009D0001DE0D8F8180000EB800005EB400030382F
:1009E000C8F818002046E168884705460EF0B3FABB
:1009F0000028EED1012F0AD02E2D08D12046E16823
:100A000088477F1C0546022F46F02006C4DBA069FC
:100A1000002803DA404246F00106A061F00701D049
:100A200026F010066C2D0BD0682D09D04C2D39D036
:100A30006A2D35D0742D35D07A2D33D016E038E0BC
:100A4000E1682F4620468847B842054609D16C2FF9
:100A500026D04FF48060E16806432046884705466B
:100A600004E06C2F1AD04FF4807006430DB3A5F14B
:100A70004100192802D8203546F400664A46294626
:100A8000204626604E46FFF7B9FB80B101280BD007
:100A9000F61D26F0070000F1080956E74020E4E7BC
:100AA0008020D8E70020D6E706F104094DE7284664
:100AB00052E7206ABDE8F09F64F000000FB40B001D
:100AC00010B54FF000048AB00FA900910E99CC60C8
:100AD000234C7C44234A7A44CDE9064200D00423C7
:100AE0006FF00042CDE901321F4A7A446B4608920A
:100AF000024600200EF072FE0AB010BC5DF814FB36
:100B0000F0B507464FF0FF301E4615460C463B46F3
:100B100085B06A460091CDE901013146002004907C
:100B200004A8FFF7CBFF04990346601825B109B16B
:100B3000024600E022462A6000290ED0002B02DD8A
:100B40000099814209D03B466A463146001B009419
:100B5000CDE9010404A8FFF7B1FF05B0F0BD000026
:100B60006B0A0000850A0000ED0100002DE9F0414C
:100B7000074615460E461020FFF741FC04000AD038
:100B80006760C4E9026500F00DF801682160046047
:100B90000020BDE8F0810120FBE70000004870471D
:100BA000240100200048704754010020004870478D
:100BB0001C010020704770477047704738B50446E5
:100BC0000A4600206946AFF30080002808BF38BD00
:100BD00002460099204600F071FE012038BD012038
:100BE00001F07DBBF8B5AFF30080054600200C4650
:100BF000102000BF0646A819A0420DD9324669460A
:100C00000020AFF30080070008BF01F068FB0098E8
:100C1000A04218BF0546C419FFF7C0FF056007468C
:100C2000F01D20F007004619284600F00AF8B442EB
:100C300008BFF8BDA21B31463868BDE8F84000F097
:100C40003DBE00210160C0E90110704710207047CF
:100C500030B5B0F10A0271F100034FEA900E4EEA8E
:100C6000817EB0EB0E0061EB91014FEA101E4EEA5F
:100C7000017E10EB0E0041EB11114FEA102E4EEAEF
:100C8000016E10EB0E0041EB11214FEA104E4EEABF
:100C9000014E10EB0E0041EB1141401841F10001F3
:100CA0004FEAD00040EA41704FEAD1014FEA810497
:100CB00044EA907410EB800544EB01046D1944EB99
:100CC0000404521BA3414FF0000348BF0A3200D571
:100CD00030BD401C41F1000130BD10B5044600F0AC
:100CE000E1FD0068005D00F0010010BD2DE9F04756
:100CF0000D4699469246044600F12408016888068C
:100D000004D5E06921F01001216000E00120A84233
:100D100001DD471B00E00027A1697A1902EB0900F9
:100D2000081AA0612078C00602D42046FFF71FFCF5
:100D3000002608E0D4E901211AF806009047206A4D
:100D4000401C761C20624E45F4DB2078C0060AD594
:100D50002046FFF70CFC06E0D4E901213020904743
:100D6000206A401C2062381EA7F10107F4DC07E06E
:100D7000D4E9012118F805009047206A401C206240
:100D8000281EA5F10105F3DC2046FFF706FC2078BC
:100D9000000602D50220BDE8F0870120FBE72DE91F
:100DA000FF4F0C461E464FF0FF378BB0D2E90001D3
:100DB000DDF860800A908A46C1F30A5505B93D46C0
:100DC000002108464FF00000BAF1000F00F4400087
:100DD00005DA00EB80004FF4400101EA50004FEAD1
:100DE0009059B9F1010F00DDB9460A9850EA4A005E
:100DF0000ED044F61050A5F2FF3545432F14B8F13C
:100E0000000F1ED07542291E1EDDC9F100021CE034
:100E1000B8F1010F4FF0000001D0302103E0F243A0
:100E200005E02154401CB042FBDB3046002200218B
:100E300021540B99C1F80880C1E900200FB0BDE82A
:100E4000F08FBD1B6D1CDEE74A4600DA694206A83A
:100E500001F00AF806AB93E8070003AB83E807004C
:100E600050460A990DF0E7F88DE80700A0F500500C
:100E70001F3800900398002D0ADD42F21F014A46F8
:100E80000844002303A9039068460DF093FB09E092
:100E9000A0F500504A461F38002303A90390684676
:100EA0000DF0B2FB8DE807000004000C03D04FF0FA
:100EB000FF30410800E01046B8F1000F03D00022D7
:100EC000009215461EE0751E05D4FFF7C1FE3032B4
:100ED00062556D1EF9D5B3460122084302D00022A7
:100EE0007F1C04E02078302801D100227F1E002AD8
:100EF000099784D01DE0112D07DAFFF7A9FE3032E3
:100F000062556D1C50EA0102F5D1084302D00098E9
:100F1000C8B10EE00021681E05E0235C625C6354EA
:100F20002254401E491C8142F7DBAB46A81B401EE1
:100F30000990002004F80B000B98099AC0F808806B
:100F4000C0E9002B7AE711264FF0000857E72DE99A
:100F5000F04F88460446D21D22F0070191B0D1E936
:100F60000001CDE90A010DF09BFC02460B98C00F71
:100F700001D02D2007E02068810701D52B2002E059
:100F8000202101EAC000032A099001D0072A05DBCD
:100F900003464146204600F0ABFC0BE1207880067A
:100FA00001D5E06900E00620B8F1650F814606D062
:100FB000B8F1660F18D0B8F1670F70D131E000209A
:100FC000B9F1110F009001DB112301E009F10103D8
:100FD0000AAA01A90CA8FFF7E2FEDDE90C700026C1
:100FE00009F10105834647E001204B4600904FF090
:100FF00000470AAA01A90CA8FFF7D1FEDDE90DB050
:101000000C995D46002610B909F101000D18B9EBE5
:10101000050003D4C0F1FF3609F10105A5EB090075
:101020002BE0B9F1010F01DA4FF001090020B9F10D
:10103000110F0090484601DD112300E003460AAA83
:1010400001A90CA8FFF7ABFEDDE90C704D460026A8
:101050008346207800070AD4AB4500DA5D4601A834
:10106000012D04DD411911F8011C302907D04F452D
:1010700002DA17F1040F04DA012082460FE06D1E38
:10108000EEE7002F02DCED1B3E4403E0781CA84293
:1010900000DD7D1CB81B00F1010A4FF000472078ED
:1010A000000703D4AA4501DB4FF0FF3A0021B7F156
:1010B000004F0DF143088DF8431024D002202B235C
:1010C000002F01DA7F422D230A21021EA0F1010028
:1010D00000DC5FB197FBF1FC97FBF1F201FB1C7C9C
:1010E00017460CF1300C08F801CDEEE7A8F101002D
:1010F00003702188090501D5452100E06521A0F193
:10110000010800F8011C09980FA9A1EB0807FF1DB1
:1011100000B10120411901EBEA70A1693844081AB5
:10112000401EA0612078C00602D42046FFF71FFAB7
:10113000099828B1D4E901219047206A401C206217
:101140002078C00622D52046FFF711FA1EE0002EB7
:1011500004DBB34502DD01A8805D00E03020D4E966
:1011600001219047206A401C2062761CAAF10100F0
:101170005FEA000A0AD100F09DFBC0680168405C8C
:10118000D4E901219047206A401C2062281EA5F165
:101190000105DCDC07E0D4E9012118F8010B9047D8
:1011A000206A401C2062381EA7F10107F3DC2046AC
:1011B000FFF7F3F9032011B041E600002DE9F04FED
:1011C00004460D46D21D22F0070089B0D0E90097F1
:1011D000484639460DF064FB0246F80F01D02D2336
:1011E00007E02068810701D52B2302E0202101EAD6
:1011F000C0038DF820300BB1012000E00020032A4D
:10120000824601D0072A04DB2946204600F070FB05
:101210003FE12078800601D40D2500E0E569C7F3A1
:101220000A560D2D49DA00214FEA175B08464FF0A8
:101230000000002F00F4400007DA00EB80004FF4BC
:10124000400100EBD07001EA60008115012901DD49
:101250004FF0FF3100224FEA850CBCF1180F06D386
:101260001346ACF118004FF08052C24003E04FF437
:10127000801323FA0CF30CF10C0CBCF1200F04D3F7
:10128000ACF1200C09FA0CF001E007FA0CF000298F
:101290004FF0004801DD18B90FE00ED140450CD3E6
:1012A00019EB02095F4121B9404502D19F4329EA68
:1012B0000209BBEB175F00D0761C2088000502D521
:1012C0007B48784402E07A487844193808AA3023E9
:1012D00002F80A30037C0AF10101002E0AF1020A29
:1012E00053546A4602DC4FF0300101E04FF0310107
:1012F0004FF001088DF8001002D0A6F2FF3603E08F
:1013000059EA470100D06B4E002D02DC2178090715
:1013100004D54FF002082E218DF80110C44600219B
:101320000BE0C7F303433F01C35C491C6D1E02F889
:101330000830052908F1010801DA002DF1DC00214F
:101340000CE000EB1973491C1B786D1E082902F88C
:1013500008304FEA091908F1010801DA002DF0DC24
:1013600021688B0602D516E0A8F10108E04505DDED
:1013700002EB080313F8013C302BF5D0B8F1000F55
:1013800009DD02EB080313F8013C2E2B03D10907FA
:1013900001D4A8F10108002D05DD3E2102F8081056
:1013A0006D1E08F10108407C002E02F8080008F1CB
:1013B000010804DA2D20764202F8080002E02B2012
:1013C00002F808000A214FF47A70864208F10108F9
:1013D0000BDB96FBF0F3303302F8083096FBF0F3AA
:1013E00008F1010800FB136601E0642E0CDB6420A9
:1013F00096FBF0F3303302F8083096FBF0F308F177
:10140000010800FB136601E00A2E06DB96FBF1F0F3
:10141000303002F8080008F1010896FBF1F001FBFA
:101420001060303002F80800A16908F1010808EBEB
:10143000050202EB0A00081AA0612078C00602D457
:101440002046FFF794F8216A08AE01EB0A002062FB
:1014500004E0D4E9012116F8010B9047BAF1010A22
:10146000F7D22078C00602D52046FFF780F86E46F6
:1014700009E016F8010B3E280FD0D4E9012190476E
:10148000206A401C2062B8F10108F2D22046FFF722
:1014900084F809B00320BDE8F08F206A2844206258
:1014A00003E0D4E90121302090476D1EEBD3F8E72B
:1014B0000AE7000002FCFFFF01694A1C026108788C
:1014C000704700B58FB0CDE9013100210591054984
:1014D0007944CDE9031011466846FFF72BFA0FB0A7
:1014E00000BD0000E5FFFFFF10B5436913B1AFF386
:1014F000008001E0FFF774F8012010BD127800F1C0
:1015000024010A7000224A700122EDE711684FF0B1
:10151000FF32E9E710B5436913B1AFF3008001E092
:10152000FFF7EAF8012010BD128800F1240182843F
:101530000022C2840122EDE711684FF0FF32E9E793
:10154000426842B1016811F8013B23B1521EC0E963
:101550000012184670470121C160881E704742681A
:101560005AB1C368016843B983688B4205D0491EEC
:10157000521CC0E90012002070474FF0FF30704746
:10158000007B00F08000704710B54248542100F005
:1015900019F94148542100F015F94048542100F050
:1015A00011F93F493B483C4A3F4B08603D490A60BE
:1015B0003A491960531C0365481C106501200865F1
:1015C0003B48344A39A1784400F0D4FD20B938486A
:1015D00078440A3800F07CFE37482F4A35A1784419
:1015E00000F0C8FD20B9344878440A3800F070FE95
:1015F00032482A4A2FA1784400F0BCFD20B92F4878
:1016000078440A3800F064FE40232248DC000021C0
:10161000224600F08CFD20B125487844543800F073
:1016200057FE1D4822464023002100F080FD20B1D6
:1016300021487844543800F04BFE184822461023C5
:10164000002100F074FD002806D01C487844BDE855
:101650001040563800F03CBE10BD104870B5006D0B
:1016600020F001040B4800F0FDFD0B4800F0FAFDEE
:101670000A4800F0F7FD09E0206D20F00105204642
:1016800000F0F0FD2046FEF7E9FE2C46002CF3D1D9
:1016900070BD00002000002074000020C800002061
:1016A000000000200400002008000020720000005C
:1016B00019E400007700000005E40000F1E30000F9
:1016C0002DE9F04116460C46054600F0EBF803689C
:1016D00093F80101012807D0FF2C12D8185D80B1C2
:1016E00001202C70BDE8F081D3F807013246214675
:1016F00003F20713C7182846BC46BDE8F041002393
:1017000060474FF0FF30EDE710B5002000F0D9FD45
:10171000FEF7D6FDBDE81040012000F093B82DE99A
:10172000F0410646FFF73EFA8046454613E016B103
:10173000E068B0420ED120682860D4E90101D8F8F1
:10174000007088472046FEF789FED8F80000B842AE
:10175000EBD100E025462C68002CE8D1BDE8F081F3
:1017600010B5203AC0F00B80B1E81850A0E818502E
:10177000B1E81850A0E81850203ABFF4F5AF5FEA7E
:10178000027C24BFB1E81850A0E8185044BF18C923
:1017900018C0BDE810405FEA827C24BF51F8043BCA
:1017A00040F8043B08BF7047D20728BF31F8023B1E
:1017B00048BF11F8012B28BF20F8023B48BF00F8B2
:1017C000012B70474FF0000200B513469446964631
:1017D000203922BFA0E80C50A0E80C50B1F1200144
:1017E000BFF4F7AF090728BFA0E80C5048BF0CC0F2
:1017F0005DF804EB890028BF40F8042B08BF704750
:1018000048BF20F8022B11F0804F18BF00F8012BC1
:101810007047000080E8FF1FC0F834D0C0F838E0FF
:10182000C0F83CE04FF00000704700BF80EC200B98
:10183000704700BF80EC200B704700BFC0EC200B4E
:101840007047000001491820ABBEFEE726000200E9
:10185000004870471C0100207546FFF7F9FFAE46AF
:1018600005006946534620F00700854618B020B5AC
:10187000FEF74AFDBDE820404FF000064FF000079C
:101880004FF000084FF0000BAC46ACE8C009ACE8E4
:10189000C009ACE8C009ACE8C00921F007018D46D9
:1018A0007047000010B500F005F8001D10BD00BF26
:1018B00089D70000004870473C010020034640687B
:1018C0008C46002818BF88423CBF03464068F8D3C6
:1018D00018681844884207D00CF1030020F0070074
:1018E000001D411A521A0146081D0A60FEF7B6BDD6
:1018F0002DE9F0411F46044603260168072A01F43A
:10190000006004DB08B116A505E016A503E008B1E8
:1019100015A500E015A521F010002060A069C01EEB
:10192000A0610FB1401EA0612046FEF720FE4FB11E
:10193000D4E9012138469047206A401C2062C01C2F
:10194000206206E0206AFAE7D4E9012115F8010BCC
:101950009047761EF8D22046FEF71FFEBDE8F081C4
:101960004E414E006E616E00494E4600696E660043
:101970002DE9FF4F06468BB00878FF2806D0491C9A
:101980002D2805D000244FF0000908E000200CE0CD
:101990000124F8E709EB8903491C00EB43090878A7
:1019A000FF28F7D114B1C9F1000081461078002555
:1019B0002C46AA4629462D2801D02B2804D1521C9A
:1019C0002D2813D0002082468B461078FF280FD098
:1019D0004FF0000C0A21521CA5FB017804FB018189
:1019E00005FB0C11C5194BEB0104EEE70120EAE7FA
:1019F000002108464FF00000BAF1000F02D000EBC2
:101A000080004008C0F38157012F01DD4FF0FF3700
:101A10000E9955EA040009EB01080BD04FF00209BA
:101A200018F5FA7F16DA4FEACA70002F706008DDE9
:101A3000012007E04FEACA70C6E900B00FB0BDE868
:101A4000F08F00203060FFF7B1F8C0F80090182147
:101A5000084616E0B8F5FA7F18DD002F02DAF748DD
:101A6000784401E0F6487844D0E90010C6E9001057
:101A700040EACA707060FFF799F8C0F8009014212E
:101A800008460FB0BDE8F04F0DF041BE00210846FA
:101A90004FF00000B8F10001099002DAC7F100022E
:101AA00000E03A4601DAC8F1000106A800F0DCF9CE
:101AB00006AB93E8070003AB83E8070044F23E005F
:101AC0005BEA04010090584604D144F21E012C4602
:101AD0005D460091210C0904014306D100992404BC
:101AE00044EA15442D041039009104F07F4101436C
:101AF00006D10099240244EA15642D0208390091A8
:101B000004F07041014306D10099240144EA1574A0
:101B10002D01091F009104F04041014306D10099B5
:101B2000A40044EA9574AD00891E009104F00041C0
:101B3000084304D100986D196441401E00904FF095
:101B400001033A466846B8F1000FCDE9014503A903
:101B500002DD0CF06EFD01E00CF041FDBAF1000F6A
:101B600004460D4601D084F00044002108464FF0A1
:101B70000000099940F2FF77484010F00C0F07D1A0
:101B800024F00040284303D0C4F30A50B84212D1D5
:101B9000FFF70CF8C0F80090C4F30A50B8420AD11D
:101BA000A8487844D0E90010C6E9001004F00041CC
:101BB0000843706042E7C6E900543FE72DE9FF4F54
:101BC0001F464FF0000A4FF0FF38454691B0D7E965
:101BD0000146CDF83CA0FFF76DFEC0680168405C8F
:101BE0001090B96912986D1C8847396A81468847F8
:101BF0000028F6D1B9F1FF3F0AD0002E24F4D064BA
:101C000011DDB9F12B0F08D0B9F12D0F0BD102E086
:101C1000404615B013E744F48064B96912986D1C0E
:101C20008847761E8146600504A901D52D2000E075
:101C30002B20002E01F1010B0DF130088DF8100062
:101C40003FDDB9F1690F08D0B9F1490F05D0B9F1FD
:101C50006E0F02D0B9F14E0F1CD13B4601A8009582
:101C600080E85002DDE912126FF002000DF0BAFDBB
:101C7000C11CCED10EE0B96912986D1C884781460F
:101C80001398761E44F4007405600F98401C002ED3
:101C90000F9016DDB9F1300FEDD0B9F1780F02D009
:101CA000B9F1580F0DD10F9801280AD13B46CDE963
:101CB0000054DDE91212001F02960DF091FDC11CC7
:101CC000A7D1109989453ED144F0800406E01399CC
:101CD000681CAAF1010A44F400740860B9696D1C1B
:101CE0001298761E884730288146F0D02BE0109954
:101CF000894505D1200603D4761E44F0800418E0FF
:101D000048460DF028F908B3761E0DF123029345DD
:101D1000A9F1300044F4007406D20BF8010B200640
:101D200007D5AAF1010003E0200602D40AF1010060
:101D30008246A00502D51399681C0860B9691298FB
:101D40006D1C88478146002ED1DC53E0002E51DD0A
:101D5000B9F1650F02D0B9F1450F4BD1A00549D5B6
:101D6000B9696D1C1298761E24F440748847002EC1
:101D700081460CDD2B2804D0B9F12D0F07D144F496
:101D80008074B96912986D1C8847761E8146E005FB
:101D900001D52D2100E02B2108F8011BCDF8008092
:101DA00021E0761E0DF13901884544F400740CD20F
:101DB000A9F1300010F0FF0088F8000002D100996E
:101DC000884509D908F1010806E0E00501D51E485B
:101DD00001E042F20F708246B96912986D1C884783
:101DE000814613980560002E04DD48460DF0B3F8D7
:101DF0000028D6D1F96912988847FF2053468BF8FE
:101E0000000088F8000000200A900B9004AA0CA99A
:101E10000AA8FFF7ADFDA00502D46FF00100F8E6B7
:101E200014F0240F12D0E0071CD13868DDE90A1243
:101E3000031D3B600068C0E9001213E0ECE80000FD
:101E4000DEE80000A2E70000F1D8FFFF0AA968461B
:101E50000DF06EF8E00705D13868009A011D396071
:101E6000006802602846D4E62DE9F0478146164610
:101E70008AB0354878440DC88DE80D003248784462
:101E8000801C03AC0DC884E80D0041F69B3008446B
:101E9000372190FBF1F290FBF1F5A5F1800501FBF4
:101EA00012041B3C02D56442012000E00020DFF850
:101EB00098A080460027FA44AAF1BE0A0EE0E00787
:101EC0000AD03246684607EB470101230AEB81013D
:101ED0000CF09AFB8DE8070064107F1C002CEED1FB
:101EE000194F7F44AE3F19E0E80715D007EB041007
:101EF0000DF1180A90E80E008AE80E00C068F04262
:101F000001D1981908903246012306A903A80CF0C4
:101F10007BFB03AB83E807006D10641C002DE3D14D
:101F20004FF0010332466946B8F1000F03A802D012
:101F30000CF040FB01E00CF067FBC9E90001C9F8B7
:101F400008200AB0BDE8F087F4DB00002DE9F05F5F
:101F5000054617460C46C86820F4201040F480005F
:101F6000C860800602D5084600F07DFBE06841F2BB
:101F700082014FF0FF3A0140022903D0204600F0D1
:101F80000FFBB9E000F42041B1F5004F0FD1C003C1
:101F900006D56168E06A884200D80846606006E0BD
:101FA0002069E0626060606900F064FAA061A06886
:101FB0000022EEB200280DDAE1688B050AD4C04396
:101FC000A06041F490302260E0606068411C616074
:101FD0000670AAE0E0689146226040F40050E0609C
:101FE000206978BB606900F037FA04F124054FF0EE
:101FF0000108A8B1A08910F4407F08D0E069FEF77D
:10200000FEF9206118B1E06840F4006017E0C4F800
:102010001C802561E06820F4407040F480600EE090
:10202000E069FEF7ECF900282061F0D0E06840F4A8
:10203000006010F4407FE06002D140F48070E06006
:1020400020696060E06825696FF0010BC1051ED54D
:102050006168E06A884200D80846411B04D02246E5
:10206000284600F0A7FAE8BB1FB1E562C4E90159B0
:1020700059E0681CE0626060E069401EA060E068B2
:1020800040F48030E06030462E70BDE8F09F17B11C
:1020900000F480320AE06068411C61600670E0680C
:1020A0000A2E40F48030E06006D00022E16A6068C9
:1020B000814203D90B4602E00122F7E70346B4F858
:1020C0000CC05B1B5FEA4C5C04D4D4F81CC09C457C
:1020D00000DD02B3814200D80146002BA1EB0008CD
:1020E000E56200E008E0C4E9015907DD224619462F
:1020F000284600F05FFA08B15046C6E7B8F1000F75
:1021000009D0A169E5626560A1EB0800A061E06803
:1021100040F01000E06047B16168A069E562491BCA
:1021200008446560A0615846AFE73046ADE770B53A
:10213000C468A50713D0650211D4B2F5807F09D019
:10214000B2F5007F06D0B2F5806F08D1012300F10F
:10215000240106E05D1E6FF07F46B54201D30120E9
:1021600070BD0161C361416024F470611143C160BD
:10217000002070BD2DE9F0410C461646070047D0FF
:10218000104600F06FF82078611C61280AD0722890
:1021900002D077283CD102E00125002405E0022589
:1021A000042402E0082448F2020511F8010B2B2850
:1021B00006D0622809D011F8010C74280AD00BE06F
:1021C00045F0030544F00204EFE745F0040544F050
:1021D0000104EAE744F010043846214600F01DF9F6
:1021E000411C15D00021316171604FF40071F56020
:1021F000F1617061200704D530460222002100F011
:1022000053F9306D40F0010030653046BDE8F08193
:102210000020FBE72DE9F0410D460646104C206DED
:10222000C10704D0410804D020F00104F7E722469A
:102230000EE05420FEF7E3F807000ED0206D47F0C3
:1022400001010843542120653846FFF7BBFA3A469E
:1022500029463046BDE8F0418CE70020D6E7000073
:10226000200000202DE9F04704464FF0FF380026FB
:10227000C568D4E90497A80718D0204600F0D0F923
:10228000384600F0D4F8002800DA4646280502D582
:102290004846FEF7E3F84C212046FFF793FA206DFD
:1022A00020F0010020653046BDE8F0874046FBE79E
:1022B00010B50446AFF300802046BDE81040FEF79D
:1022C0000FB810B500F0F6F9BDE8104000F0ECB919
:1022D00010B500F007FABDE8104000F0E5B910B500
:1022E00000F01AFABDE8104000F0DEB9032A40F20F
:1022F000308010F0030C00F0158011F8013BBCF1A8
:10230000020F624498BF11F801CB00F8013B38BFBF
:1023100011F8013BA2F1040298BF00F801CB38BFCD
:1023200000F8013B11F003033FF41AAA083AC0F089
:10233000088051F8043B083A51F804CBA0E8081093
:10234000F5E7121D5CBF51F8043B40F8043BAFF3C6
:102350000080D20724BF11F8013B11F801CB48BF20
:1023600011F8012B24BF00F8013B00F801CB48BF56
:1023700000F8012B7047000030B44FF0013C50F8DA
:10238000042B51F8043BCCFA52F4D51A20D1FCB9F5
:1023900050F8042B51F8043BCCFA52F4D51A17D15B
:1023A000B4B950F8042B51F8043BCCFA52F4D51AC6
:1023B0000ED16CB950F8042B51F8043BCCFA52F40E
:1023C000D51A05D1002CDAD030BC4FF00000704790
:1023D00029BAB1FA81F111F01801D1F1200084403D
:1023E000F2D1CA40CB4012F0FF0213F0FF0330BC21
:1023F000D01A704786469EE8FF1FDEF834D0DEF81C
:102400003CE0704790EC200B704700BF90EC200B35
:10241000704700BFD0EC200B70470EB5CDE900012E
:1024200000F0A2F9029069460120ABBE0EBD08B5CE
:10243000694600900220ABBE08BD1FB58DE80700BD
:1024400069460520ABBE04B010BD1FB58DE80F0076
:1024500069460620ABBEF6E708B56946009009203C
:10246000ABBE08BD1CB5CDE9000169460A20ABBE74
:102470001CBD704708B5694600900C20ABBE08BD76
:102480007047B2F120030AD5C2F1200301FA02F12C
:1024900020FA03F341EA030100FA02F0704700FA60
:1024A00003F14FF0000070472DE9F0410446164655
:1024B0000D464769007B80072ED03846FFF7CCFFDA
:1024C00050BB3EB3012E02D0022E25D104E020469F
:1024D00000F094FB05441DE03846FFF7CBFFE168B0
:1024E000002841F01001E16005DA204600F058F8BC
:1024F0000120BDE8F081C9030BD56268E16A914211
:1025000000D81146A26911442269891A814200DD6E
:1025100008460544002D01DA0220EAE7E16A606816
:10252000E268814206D29103E06203D522F40031D1
:1025300041F01002A6690027AE4213DCE16A814235
:1025400001D90B4600E0034603EB060C2369ACEB14
:10255000030CAC4506DD814201D98C4600E084467F
:102560009C4505D1A760276042F02000A5620DE0E0
:10257000AD1BE669AE1B8142A66000D90846C01AB1
:10258000281A20605819606022F020000349084092
:10259000E060002084F84870ABE70000BFCFD7FFB1
:1025A000C16821F4001141F08001C1600021816007
:1025B000016070472DE9F74F15460C464FF0FF3B81
:1025C0003848D768D2F814A0074209D05046A96904
:1025D000FFF748FF002819DB3248C0430740EF608F
:1025E0004FF000496FF000484C4501D3464600E0EB
:1025F000264600993B4650463246FFF71EFFA96922
:1026000020F00042B21A1144A96128B12846FFF710
:10261000C7FF5846BDE8FE8FA41BE5D10020F9E7AF
:1026200070B504460569C06A6168884200D80846EA
:10263000E16821F42011E160C90312D5A84208D055
:102640002246411B2846FFF7B5FF10B14FF0FF307F
:1026500070BD0020E562C4E90150E06820F48030DC
:10266000E060002070BD10B50446C06820F0200076
:10267000E060A16AA06988420DD02046FFF7D0FF34
:10268000E06820F4405040F01000E060A06AA061D3
:102690002069E062606044F24001E0688843E060E5
:1026A00010BD000010000200002801D0FFF7CAB8DA
:1026B0007047000010B5002102A000F0C0FA012010
:1026C00010BD0000534947414252543A2041626EC6
:1026D0006F726D616C207465726D696E6174696F83
:1026E0006E00000010B5014602A000F0A8FA01201B
:1026F00010BD000053494752545245443A20526598
:102700006469726563743A2063616E2774206F7028
:10271000656E3A200000000010B5012805D00021A8
:1027200003A000F08CFA012010BD09A1F8E7000019
:1027300053494752544D454D3A204F7574206F66AA
:102740002068656170206D656D6F72790000000012
:102750003A2048656170206D656D6F727920636FF6
:10276000727275707465640010B5431C02E010F855
:10277000011B71B18107FAD14FF0013202C88C1AE6
:102780008C4314EAC211F9D0C01A0A0603D0C01E45
:1027900010BDC01A10BD0A0401D0801E10BD090270
:1027A000FCD0401E10BD00002DE9FF4F1F464FF02A
:1027B0003C0987B04FF00042DDE9141001F1010837
:1027C000DDF858A002EA40500390002005908346AF
:1027D000054604460490B969461E08988847AAF140
:1027E000010A0290BAF1000F3BDD02982E2815D0A5
:1027F000102100F044FA00282EDB4FF0010B059960
:10280000014317D0B9F1000F0BDB4A46C117FFF7A0
:1028100038FE05430C43A9F1040905E001200490AA
:102820000BE008B145F0010501200590049820B99E
:10283000361D02E0049800B1361FB969089808F106
:1028400001088847BBF1000FAAF1010A0290C9D024
:102850000999C1F80080C5E70298702808D050286F
:1028600006D0F96908988847BBF1000F14D04FE0F3
:10287000002002900120BBF1000F049009D0B9693B
:10288000089808F101088847AAF10109B9F1000F79
:1028900007DCF969089888476FF001000BB0BDE8C4
:1028A000F08F2B2804D02D280CD14FF0FF3004904E
:1028B000B969089808F101088847A9F10109B9F137
:1028C000000FE6DD411CE4D00A2100F0D8F9002811
:1028D000DFDB029908F1010801EB810100EB410007
:1028E0000290B969089888470A2100F0C8F9099A46
:1028F000A9F10109B9F1000FC2F8008001DD00283B
:10290000E7DAF969089888470499029800FB01669C
:1029100055EA040004D004F04041090002D006E06A
:10292000039898E0A40044EA9574AD00B61E04F044
:102930000041080002D16D196441761E159810F00F
:10294000240F03D04FF00B095C4803E04FF0280937
:102950006FF07D008246564507DAAAEB06018944EE
:10296000B9F1410F01DD4FF0410901200021A9F12A
:102970000102FFF786FD024628400B46214008432E
:1029800001D0012100E00021501E029143F1FF31EE
:1029900028402140084301D0012000E00020029996
:1029A000834651EA0B014FD0002108464FF000004A
:1029B000039900F4400039B100EB80004FF440016E
:1029C00000EBD07001EA60008015012802DD4FF0B5
:1029D000FF3000E013D0401C36D0029860B3BBF14A
:1029E000000F0CD14A4601200021FFF74AFD284084
:1029F0002140084301D0012000E00020E0B1012087
:102A00004A460021FFF73DFD034640190A46614151
:102A10002D1A8C4111D3B9F1400F09DD159810F032
:102A2000240F02D0AAF1340603E0AAF1170600E051
:102A3000761C00254FF0004406E05B1E42F1FF3299
:102A400020EA030521EA0204CAF10100B04206DAD5
:102A50001B49039808430190002000900EE0039A60
:102A6000C4F3D321E80A0A43164940EA44500A4312
:102A70003146CDE9000268460CF063FA159810F073
:102A8000240F0BD01598C00715D13868DDE9001266
:102A9000031D3B600068C0E900120CE002A8694613
:102AA0000CF046FA1598C00705D13868029A011D46
:102AB0003960006802604046F0E6000002FCFFFF5B
:102AC0000000F07F0000F03F2DE9FF4F92461D46C9
:102AD00085B04FF00041DDE9124BDDE914727F1E35
:102AE00001EA4B50414940F0FF4940EA010800210A
:102AF00022F020004928049102D04E2828D04CE032
:102B00003BA0012607C88DE80700A9690698641C48
:102B100088477F1E014606D41DF8060018B121F033
:102B2000200181420BD0E96906988847032E34D0F2
:102B3000082E32D06FF0010009B0BDE8F08F761C8E
:102B4000032E01D0082EE0D1601CCAF80000DCE79B
:102B5000A9690698641C88477F1E2AD420F02000AB
:102B6000412826D1A9690698641C88477F1E20D475
:102B700020F020004E281CD1A9690698641C8847C3
:102B80007F1E48F4002849F48009CAF8004001D4A7
:102B9000282806D0E969069888475FEACB7012D0EA
:102BA00022E0A9690698641C88477F1E01D400288A
:102BB00003DAE96906988847BCE72928F1D1641C43
:102BC000CAF80040E9E71BF0240F07D028680499F1
:102BD000031D2B600068C0E9001805E02868021D8D
:102BE0002A600068C0F800902046A5E70000F07F4A
:102BF000494E46494E4954590000000010B501465F
:102C0000C268900703D0900607D5886A0AE0FDF7EE
:102C1000CDFF01210160881E10BD8B6948681844F2
:102C20000B69C01A91F848301BB191F84910401A4D
:102C300010BD1103FCD50028FADD401E10BD70B593
:102C400005460C460A2000E06D1C00F011F835B175
:102C500028780028F8D102E0641C00F009F814B1CB
:102C600020780028F8D1BDE870400A20AFF300803A
:102C700008B569468DF800000320ABBE08BD3A28B0
:102C800000D2303820F02002412A01D3A2F13700CF
:102C9000884201D34FF0FF30704753EA020C00F036
:102CA00069802DE9F04B4FF00006002B1FBFB3FAEF
:102CB00083F503FA05F424FA05F65E4012BF1643C5
:102CC000B2FA82F502FA05F4C5F120051EBF22FA18
:102CD00005FC44EA0C04203556EA044C4FEA14443F
:102CE00018BF641C4FF000084FF00009904271EBD0
:102CF000030C39D3002919BFB1FA81F701FA07F69D
:102D0000B0FA80F700FA07F6C7F120071EBF20FAD5
:102D100007FC46EA0C062037B6FBF4FCA7EB0507D8
:102D2000103F07F01F0BCBF120062CFA06F60CFA29
:102D30000BFB44BFB3460026202FA4BF5E464FF0D6
:102D4000000B5BEA060C08BF4FF0010B19EB0B09F7
:102D500048EB0608ABFB027C06FB02CC0BFB03CC6A
:102D6000C01B71EB0C01C1E70B46024641464846C9
:102D7000BDE8F08B13B5084318BF4FF0FF30014694
:102D8000AFF30080BDE81C407047000070B5064CF2
:102D90007C44064D7D4404E0204601680844804799
:102DA000241DAC42F8D170BDF0D60000F0D6000072
:102DB00080B540F2CC50C2F2000000F049FD40F274
:102DC0001460C2F2000000F043FD80BD82B00190AB
:102DD00042F20030C4F2010000900098416821F4F2
:102DE000403141600198406800994A68104348604A
:102DF00001980068416821F4807141600198016880
:102E000000694A6842EA0020486001980068416809
:102E100021F0407141600198016880684A68104360
:102E2000486001980068816821F400618160019820
:102E30000168C0688A68104388600198806A01212F
:102E4000C0F60071884219D0FFE7019800688168D8
:102E500021F07061816001980168806A8A6810437E
:102E6000886001980068816821F040518160019874
:102E70000168C06A8A68104388600CE001980068A5
:102E8000816821F07061816001980068816821F09B
:102E900040518160FFE701980068816821F00201DC
:102EA00081600198017E0068826842EA4101816088
:102EB000019890F82000C8B1FFE7019800684168C8
:102EC00041F40061416001980068416821F460416B
:102ED000416001980168406A4EF20002CFF6FF722D
:102EE00002EB40304A681043486006E001980068F1
:102EF000416821F400614160FFE701980068C16A00
:102F000021F47001C16201980168C0690022CFF606
:102F1000F07202EB0050CA6A1043C8620198006860
:102F2000816821F400718160019890F83010006888
:102F3000826842EA4121816001980068816821F439
:102F4000806181600198016840698A6842EA802056
:102F5000886002B070470000FFE7FEE780B540F2EE
:102F6000BC60C2F2000000F025FF80BD80B540F2D9
:102F70001C70C2F2000000F01DFF80BD80B540F261
:102F80005C60C2F2000000F015FF80BD82B00190CD
:102F90000198007810384AF6AB21CAF6AA21A0FBA6
:102FA000010108090090009840F20801C0F60101F3
:102FB000085C0199C8650098042807D3FFE70198C9
:102FC0000168042262F30901816506E00198016845
:102FD00040F2FF3291438165FFE70198806D02B0B6
:102FE0007047000083B0029000208DF8070002981F
:102FF000806A00900298806900BBFFE70098032870
:103000001AD8DFE800F0020D0218029890F82F009D
:10301000C00720B1FFE701208DF80700FFE70CE0B3
:103020000298C06AB0F1C07F04D1FFE701208DF89B
:103030000700FFE701E000E0FFE741E00298806958
:10304000B0F5005F23D1FFE7009803281DD8DFE823
:1030500000F00206021101208DF8070016E0029828
:1030600090F82F00C00720B1FFE701208DF807007E
:10307000FFE70BE00298C06AB0F1C07F04D1FFE720
:1030800001208DF80700FFE700E0FFE717E0009858
:10309000032803D3FFE7032804D00EE001208DF8B6
:1030A00007000BE0029890F82F00C00720B1FFE75F
:1030B00001208DF80700FFE700E0FFE7FFE7FFE7EB
:1030C0009DF8070003B0704784B00390029101920D
:1030D000009303980068016821F480210160009842
:1030E00003990968486003988068402809D1FFE780
:1030F0000198039909688860029803990968C86073
:1031000008E00298039909688860019803990968A2
:10311000C860FFE704B070477047000084B00290B9
:103120000191019880690121C0F20F01884201D00C
:10313000FFE7FFE7FFE7029890F83C00012804D181
:10314000FFE702208DF80F004CE10298012180F882
:103150003C10FFE7FFE7019800680A281CD3FFE74F
:103160000198008800EB40001E38072101FA00F0AA
:1031700002990968CA6822EA0000C860019881685B
:10318000008800EB40001E3801FA00F0029909683F
:10319000CA681043C86019E00198008800EB40003D
:1031A000072101FA00F0029909680A6922EA000081
:1031B000086101988168008800EB400001FA00F086
:1031C000029909680A6910430861FFE702980068DC
:1031D000816B21F440118163019800690021CFF6D1
:1031E000F07101EB0050029909688A6B1043886303
:1031F000019841680069081A0330C1B2890051FA88
:1032000080F01F2101FA00F0029909688A6B22EA16
:10321000000088630198018842680069101A033031
:10322000C2B2920052FA80F001FA00F002990968E5
:103230008A6B10438863019880690121C0F20F01F5
:1032400088421BD0FFE702980068816821F4702152
:10325000816001988069029909688A6810438860D2
:1032600002980068816821F4401181600198C0696A
:10327000029909688A68104388600CE00298006827
:10328000816821F47021816002980068816821F4CE
:1032900040118160FFE70198407D38B1FFE7029857
:1032A0000068416841F48061416006E0029800686E
:1032B000416821F480614160FFE70198007D38B1E9
:1032C000FFE702980068416841F48051416006E0E0
:1032D00002980068416821F480514160FFE701983D
:1032E0004068012806D0FFE7022812D0FFE7032834
:1032F0001ED02CE002980068416940F6FF729143AD
:1033000041610198C068029909684A69104348619F
:103310002CE002980068816940F6FF729143816158
:103320000198C068029909688A69104388611DE0A4
:1033300002980068C16940F6FF729143C16101982B
:10334000C06802990968CA691043C8610EE0029812
:103350000068016A40F6FF72914301620198C068FB
:10336000029909680A6A10430862FFE742F20030D6
:10337000C4F2010000900298006842F20001C4F219
:10338000010188420BD1FFE701980068122806D19D
:10339000FFE70098416841F480014160FFE702982F
:1033A000006842F20001C4F20101884210D1FFE737
:1033B00001980068102805D0FFE7019800681128DF
:1033C00006D1FFE70098416841F400014160FFE742
:1033D000FFE70298002180F83C10FFE700208DF8FD
:1033E0000F00FFE79DF80F0004B0704780B582B072
:1033F00001900198006842F20011C4F20101884274
:1034000009D1FFE70198012100F008F80198022195
:1034100000F004F8FFE702B080BD000083B0029026
:10342000019100200090029800686FF00401016093
:1034300001980138032817D8DFE800F0110C0702C3
:1034400002980068806C00900FE002980068406C61
:1034500000900AE002980068006C009005E0029875
:103460000068C06B009000E0FFE7009803B0704771
:1034700086B040F21460C2F2000004900020039075
:1034800002900190FFE7049890F83C00012804D1D5
:10349000FFE702208DF81700B7E00498012180F8BB
:1034A0003C10FFE7FFE7049800688068C007F0B9A8
:1034B000FFE704980068816841F00101816040F2F3
:1034C0000C00C2F2000000684DF68361C4F21B31AB
:1034D000A0FB0101880C00EB40000390FFE703987C
:1034E00020B1FFE7039801380390F8E7FFE704985D
:1034F00000688068C007002878D0FFE70498006C57
:1035000040F4805042F20101884304990864049811
:10351000006CC005002804D4FFE704980021416432
:10352000FFE7FFE70498002180F83C10FFE70498CC
:1035300000686FF00401016004980068416841F080
:103540008001416042F20030C4F201000090009816
:103550004068C00600BBFFE704980068806800F47C
:103560004010B0FA80F0400902900498006840686A
:1035700000F48060012181EA90200190029850B10E
:10358000FFE7019838B1FFE704980068816841F4CB
:1035900080018160FFE728E004980068806800F4FB
:1035A0004010B0FA80F0400902900498006840682A
:1035B00000F48060012181EA902001900498006865
:1035C00042F20001C4F2010188420DD1FFE70298E6
:1035D00050B1FFE7019838B1FFE7049800688168AF
:1035E00041F480018160FFE7FFE70AE00498016C85
:1035F00041F0100101640498416C41F00101416403
:10360000FFE700208DF81700FFE706B070470000C5
:1036100085B00390029100200190FFE7039890F895
:103620003C00012804D1FFE702208DF81300F9E0E7
:103630000398012180F83C10FFE7FFE7029800683B
:103640000A281CD3FFE70298008800EB40001E38D0
:10365000072101FA00F003990968CA6822EA00000C
:10366000C86002988168008800EB40001E3801FAAB
:1036700000F003990968CA681043C86019E002980D
:10368000008800EB4000072101FA00F00399096867
:103690000A6922EA0000086102988168008800EB4C
:1036A000400001FA00F0039909680A6910430861B3
:1036B000FFE70298406806281CD8FFE70298406898
:1036C00000EB800005381F2101FA00F0039909681A
:1036D0004A6B22EA0000486302980188406800EBC8
:1036E0008000053801FA00F0039909684A6B10431D
:1036F00048633DE0029840680C281CD8FFE7029818
:10370000406800EB800023381F2101FA00F0039984
:1037100009680A6B22EA0000086302980188406881
:1037200000EB8000233801FA00F0039909680A6B66
:10373000104308631BE00298406800EB80004138AA
:103740001F2101FA00F003990968CA6A22EA000001
:10375000C86202980188406800EB8000413801FA95
:1037600000F003990968CA6A1043C862FFE7FFE7DF
:1037700042F20030C4F2010000900398006842F267
:103780000001C4F2010188420BD1FFE702980068F2
:10379000122806D1FFE70098416841F4800141609A
:1037A000FFE70398006842F20001C4F20101884279
:1037B0002ED1FFE702980068102805D0FFE7029895
:1037C0000068112824D1FFE70098416841F4000106
:1037D000416002980068102819D1FFE740F20C0000
:1037E000C2F2000000684DF68361C4F21B31A0FBF9
:1037F0000101880C00EB800040000190FFE7019878
:1038000020B1FFE7019801380190F8E7FFE7FFE7F3
:10381000FFE70398002180F83C10FFE700208DF8B7
:103820001300FFE79DF8130005B0704781B00090CA
:103830000098006842F20011C4F20101884201D1EF
:10384000FFE7FFE701B0704781B0009001B070471B
:1038500010B586B00590002004900390059800688C
:10386000006802900598006840680190029800F096
:1038700002000490019800F02000039004980028B2
:103880004AD0FFE70398002846D0FFE70598006C70
:10389000C006002806D4FFE70598016C41F40071CA
:1038A0000164FFE705980068806810F0405F2AD146
:1038B000FFE70598007E30BBFFE705980068C06A07
:1038C00010F4700F07D0FFE7059800688068400586
:1038D000002818D4FFE705980068416821F020010E
:1038E00041600598016C21F4807101640598006CB9
:1038F000C004002806D4FFE70598016C41F00101DF
:103900000164FFE7FFE70598FFF790FF059800685F
:103910006FF012010160FFE7029800F004000490CC
:10392000019800F0800003900498002858D0FFE729
:103930000398002854D0FFE70598006CC0060028C3
:1039400006D4FFE70598016C41F400510164FFE7DC
:1039500005980068806810F4401F38D1FFE705988B
:103960000068806B10F4401F07D0FFE705980068DF
:103970008068400500282AD4FFE705980068406861
:103980004005002823D4FFE705980068806810F000
:10399000405F1CD1FFE70598007EC0B9FFE705989E
:1039A0000068416821F0800141600598016C21F4B4
:1039B000805101640598006CC005002806D4FFE71B
:1039C0000598016C41F001010164FFE7FFE70598EC
:1039D000FFF70CFD059800686FF00C010160FFE730
:1039E000029800F001000490019800F0400003905C
:1039F0000498C0B1FFE70398A8B1FFE705980068F5
:103A00000068C00770B1FFE70598016C41F4803190
:103A10000164059800F07CF8059800686FF00101DA
:103A20000160FFE7FFE7029800F020000490019892
:103A300000F0806003900498A0B1FFE7039888B17C
:103A4000FFE70598416C41F0020141640598006868
:103A50006FF0200404600598FFF7F6FE05980068F3
:103A60000460FFE706B010BD80B584B0029000206E
:103A70008DF80700029820B9FFE701208DF80F00AC
:103A800042E00298806A0121C0F60071884201D0AC
:103A9000FFE7FFE70298006C50B9FFE7029800F0DB
:103AA0003BF8029800214164029880F83C10FFE73F
:103AB0000298006CC006002817D4FFE70298006C3B
:103AC00040F0020020F48850029908640298FFF741
:103AD0007DF90298002141640298006C40F00100D9
:103AE00020F002000299086403E001208DF807002D
:103AF000FFE7FFE70298002180F83C10FFE79DF800
:103B000007008DF80F00FFE79DF80F0004B080BD9F
:103B100081B0009001B0704710B58AB009900020C4
:103B2000089007900690059004900998006842F26A
:103B30000001C4F20101884236D1FFE7FFE700200F
:103B4000039043F64400C4F20200016841F480711E
:103B50000160006800F4807003900398FFE7FFE7BE
:103B60000020029043F63000C4F20200016841F0E8
:103B700004010160006800F0040002900298FFE771
:103B80000320049005900020069040F60000C4F247
:103B9000020004A900F0D8FB1220002101F020F857
:103BA000122001F013F86BE00998006842F200114E
:103BB000C4F20101884262D1FFE7FFE700200190D3
:103BC00043F64400C4F20200016841F40071016050
:103BD000006800F4007001900198FFE7FFE7002003
:103BE000009043F63000C4F20200016841F0040185
:103BF0000160006800F0040000900098FFE70C20CE
:103C00000490032005900024069440F60000C4F2BE
:103C1000020004A900F098FB40F25C60C2F20000D0
:103C200046F24041C4F2020101604FF00071416070
:103C30008460C4604FF4806101614FF400614161B0
:103C40004FF400518161C4610462446200F048FA9B
:103C500018B1FFE7AFF30080FFE7FFE7099840F2F4
:103C60005C61C2F20001816309988863FFE712205A
:103C7000002100F0B5FF122000F0A8FFFFE7FFE7EA
:103C80000AB010BD80B584B002900298806D01909A
:103C900000F056FD0090029890F8350002280DD0F3
:103CA000FFE7029880214165FFE70298002180F834
:103CB0003410FFE701208DF80F0056E002980068ED
:103CC000016821F01601016002980068416921F045
:103CD000800141610298006C20B9FFE70298806C76
:103CE00038B1FFE702980068016821F0080101601F
:103CF000FFE702980068016821F001010160FFE719
:103D0000029800680068C007C8B1FFE700F018FD1E
:103D10000099401A062811D3FFE702982021416537
:103D20000298032180F83510FFE70298002180F8FF
:103D30003410FFE703208DF80F0016E0E0E702984B
:103D4000C06D3F2101FA00F00199886002980121BD
:103D500080F83510FFE70298002180F83410FFE763
:103D6000FFE700208DF80F00FFE704B080BD0000E2
:103D700082B00090009890F83500022807D0FFE745
:103D800000988021416501208DF807000EE0009821
:103D9000052180F8351000980068016821F00101C4
:103DA0000160FFE700208DF80700FFE79DF807009E
:103DB00002B0704780B586B005900020039040F2B5
:103DC0000C00C2F20000006848F2B511C1F64E3195
:103DD000A0FB0101880A02900598806D019001986E
:103DE0000068049004980599C96DC8400007002830
:103DF0001BD5FFE70598006800684007002813D529
:103E0000FFE705980068016821F00401016005984A
:103E1000C06D082101FA00F0019988600598416D94
:103E200041F001014165FFE7FFE704980599C96D7D
:103E3000C840C007A8B1FFE70598006840690006C0
:103E400000280DD5FFE70598C06D012101FA00F0AB
:103E5000019988600598416D41F002014165FFE7D5
:103E6000FFE704980599C96DC8404007002815D59B
:103E7000FFE7059800680068800700280DD5FFE778
:103E80000598C06D042101FA00F001998860059839
:103E9000416D41F004014165FFE7FFE70498059992
:103EA000C96DC840C006002848D5FFE705980068DE
:103EB00000680007002840D5FFE70598C06D102175
:103EC00001FA00F0019988600598006800684003D5
:103ED00000281AD5FFE7059800680068000300284D
:103EE00009D4FFE70598006C20B1FFE70598016C45
:103EF0008847FFE708E00598806C20B1FFE7059848
:103F0000816C8847FFE7FFE716E0059800680068C6
:103F1000C005002807D4FFE705980068016821F074
:103F200008010160FFE70598006C20B1FFE70598E4
:103F3000016C8847FFE7FFE7FFE7FFE70498059973
:103F4000C96DC8408006002840F18F80FFE70598C2
:103F500000680068C006002840F18680FFE70598E9
:103F6000C06D202101FA00F001998860059890F851
:103F70003500052835D1FFE705980068016821F074
:103F80001601016005980068416921F080014161D6
:103F90000598006C20B9FFE70598806C38B1FFE701
:103FA00005980068016821F008010160FFE70598A5
:103FB000C06D3F2101FA00F0019988600598012148
:103FC00080F83510FFE70598002180F83410FFE7EE
:103FD0000598006D20B1FFE70598016D8847FFE760
:103FE0007CE0059800680068400300281AD5FFE7C8
:103FF0000598006800680003002809D4FFE70598C9
:10400000406C20B1FFE70598416C8847FFE708E066
:104010000598C06B20B1FFE70598C16B8847FFE7A3
:10402000FFE720E0059800680068C005002811D46B
:10403000FFE705980068016821F01001016005980C
:10404000012180F83510FFE70598002180F8341031
:10405000FFE7FFE70598C06B20B1FFE70598C16B4C
:104060008847FFE7FFE7FFE7FFE70598406DA8B344
:10407000FFE70598406DC00738B3FFE705980521B5
:1040800080F8351005980068016821F00101016091
:10409000FFE70398013003900299884201D9FFE7B6
:1040A00008E0FFE7059800680068C0070028F0D125
:1040B000FFE7FFE70598012180F83510FFE7059835
:1040C000002180F83410FFE7FFE70598C06C20B1AD
:1040D000FFE70598C16C8847FFE7FFE706B080BDA2
:1040E00080B586B004900020039000F029FB029078
:1040F000049820B9FFE701208DF81700A3E0049889
:10410000406A08B1FFE7FFE70498022180F8351004
:10411000FFE70498002180F83410FFE70498006856
:10412000016821F001010160FFE704980068006860
:10413000C00790B1FFE700F003FB0299401A062880
:104140000AD3FFE70498202141650498032180F8F1
:1041500035108DF8171076E0E7E7049800680068DE
:104160000390039848F23F01CFF2100108400390FA
:104170000498D0F804C08268C368016942EA0C025E
:104180001A4311434269114382691143C2691143C1
:10419000006A08430399084303900498406A04287E
:1041A00008D1FFE70498C16A006B084303990843EC
:1041B0000390FFE703980499096808600498006871
:1041C00040690390039820F0070003900498406A28
:1041D0000399084303900498406A04281AD1FFE722
:1041E0000498806A0399084303900498C06A80B1D8
:1041F000FFE70498FEF7F6FE50B1FFE70498402170
:1042000041650498012180F835108DF817101AE0E7
:10421000FFE7FFE703980499096848610498FEF7EF
:10422000B5FE01900498C06D3F2101FA00F001999C
:1042300088600498002141650498012280F83520A7
:104240008DF81710FFE79DF8170006B080BD00003D
:1042500080B588B0069005910492039300208DF8F4
:104260000B000698806D0190FFE7069890F83400E7
:10427000012804D1FFE702208DF81F0046E00698D0
:10428000012180F83410FFE7FFE7069890F8350029
:1042900001282CD1FFE70698022180F835100698F6
:1042A0000021416506980599049A039BFEF70CFFCF
:1042B0000698C06D3F2101FA00F0019988600698C8
:1042C0000068016841F0160101600698006C38B181
:1042D000FFE706980068016841F008010160FFE708
:1042E00006980068016841F00101016009E0FFE7FC
:1042F0000698002180F83410FFE702208DF80B00AB
:10430000FFE79DF80B008DF81F00FFE708B080BDA8
:1043100080B584B0039000F013FA029003980190E6
:104320000198013020B1FFE7019801300190FFE7CB
:10433000FFE700F005FA0299401A0199884201D27C
:10434000FFE7F6E704B080BD87B006900591002036
:104350000390029001900490FFE704980F2800F268
:10436000BC81FFE70498012101FA00F00390059851
:10437000006803990840029002980399884240F02F
:10438000A781FFE70598406800F00300012807D0E7
:10439000FFE70598406800F0030002282FD1FFE7EF
:1043A00006988068019004984000032101FA00F00B
:1043B000019921EA000001900598C068049949001C
:1043C00088400199084301900198069988600698F1
:1043D000406801900498012101FA00F0019921EA56
:1043E0000000019005984068C0F3001004998840CF
:1043F000019908430190019806994860FFE70598E4
:10440000406800F00300032818D0FFE70698C06852
:10441000019004984000032101FA00F0019921EA7B
:10442000000001900598806804994900884001992E
:104430000843019001980699C860FFE70598406815
:1044400000F00300022826D1FFE7069804996FF0D8
:10445000030202EA51010844006A0190049800F046
:10446000070080000F2101FA00F0019921EA000005
:10447000019005980069049901F0070189008840BE
:1044800001990843019001980699049B02EA53029E
:1044900011440862FFE70698006801900498400004
:1044A000032101FA00F0019921EA0000019005982A
:1044B000406800F0030004994900884001990843CE
:1044C0000190019806990860059880798007002876
:1044D00000F0FD80FFE7FFE70020009043F6440076
:1044E000C4F20200016841F480410160006800F4F8
:1044F000804000900098FFE7049820F0030043F606
:104500000801C4F2010140580190049800F0030032
:1045100080000F2101FA00F0019921EA00000190CA
:1045200006980021C4F20201884202D1FFE7002070
:104530004BE0069840F20041C4F20201884202D1E9
:10454000FFE7012040E0069840F60001C4F20201B6
:10455000884202D1FFE7022035E0069840F600418C
:10456000C4F20201884202D1FFE703202AE0069844
:1045700041F20001C4F20201884202D1FFE70420A7
:104580001FE0069841F20041C4F20201884202D1C4
:10459000FFE7052014E0069841F60001C4F202018D
:1045A000884202D1FFE7062009E0069941F6004261
:1045B000C4F202020820914208BF0720FFE7FFE78C
:1045C000FFE7FFE7FFE7FFE7FFE7C0B2049901F06D
:1045D00003018900884001990843019001980499DA
:1045E00021F0030143F60802C4F20102885043F6A9
:1045F0000840C4F20100006801900298019921EA84
:104600000000019005988079C006002805D5FFE7D5
:104610000298019908430190FFE7019843F6084189
:10462000C4F20101086043F60C40C4F201000068C6
:1046300001900298019921EA000001900598807983
:104640008006002805D5FFE70298019908430190EC
:10465000FFE7019843F60C41C4F20101086043F6FC
:104660000440C4F20100006801900298019921EA17
:1046700000000190059880798007002805D5FFE7A4
:104680000298019908430190FFE7019843F604411D
:10469000C4F20101086043F60040C4F20100006862
:1046A00001900298019921EA000001900598807913
:1046B000C00728B1FFE70298019908430190FFE77E
:1046C000019843F60041C4F201010860FFE7FFE7EB
:1046D000FFE70498013004903FE607B07047000000
:1046E00082B00190ADF8021001980069BDF8021087
:1046F000084204D0FFE701208DF8010003E000200C
:104700008DF80100FFE79DF8010002B0704700003E
:1047100082B00190ADF802108DF801209DF80100E3
:1047200028B1FFE7BDF802000199886105E0BDF8F6
:104730000200000401998861FFE702B070470000A1
:1047400040F60C30C2F200000068704780B584B0BB
:1047500040F27C70C2F200000290029820B9FFE79C
:1047600001208DF80F002AE1029890F83D0040B931
:10477000FFE70298002180F83C10029800F024F92D
:10478000FFE70298242180F83D1002980068016834
:1047900021F00101016002980068016841F40041C4
:1047A000016002980068016821F40041016000F096
:1047B0009BFB00900298406848F2A061C0F20101A2
:1047C00088420AD8FFE7009948F28042C0F21E02F0
:1047D0000020914238BF012009E0009940F6001204
:1047E000C0F23D020020914238BF0120FFE70128BE
:1047F00004D1FFE701208DF80F00E0E000984DF6AE
:104800008361C4F21B31A0FB0101880C0190029866
:104810000068406820F03F00019908430299096848
:10482000486002980068006A20F03F0002994968D9
:1048300048F2A062C0F20102914203D8FFE7019959
:1048400001310DE001994FF49672514344F6D35271
:10485000C1F26202A1FB0212012101EB9211FFE7FA
:10486000084302990968086202980068C0694CF61A
:10487000FF7188430299496848F2A062C0F20102C0
:1048800091421BD8FFE700990139029A5268520001
:10489000B1FBF2F101316FF31F31032902D8FFE7B9
:1048A00004210AE000990139029A52685200B1FBD2
:1048B000F2F101316FF31F31FFE742E0029989689D
:1048C00061B9FFE700990139029A526802EB42028E
:1048D000B1FBF2F101316FF31F310CE000990139A6
:1048E000029A526819235A43B1FBF2F101310422B2
:1048F00062F31F31FFE7090511B9FFE701211FE04E
:104900000299896861B9FFE700990139029A5268F2
:1049100002EB4202B1FBF2F101316FF31F310CE007
:1049200000990139029A526819235A43B1FBF2F1F6
:104930000131042262F31F31FFE741F40041FFE738
:10494000FFE7084302990968C86102980068006897
:1049500020F0C00002990A68CB69096A194308432C
:10496000106002980068806848F2FF31884302991D
:104970000A68CB6809691943084390600298006887
:10498000C06820F0FF0002990A684B6989691943E1
:104990000843D06002980068016841F0010101609D
:1049A0000298002101640298202280F83D2002989C
:1049B0000163029880F83E108DF80F10FFE79DF814
:1049C0000F0004B080BD000080B588B007900020C3
:1049D000069005900490039002900798006845F2B5
:1049E0000041C4F20001884234D1FFE7FFE7002014
:1049F000019043F63000C4F20200016841F0020168
:104A00000160006800F0020001900198FFE7C020FB
:104A100002901220039000200490032005900420AF
:104A2000069040F20040C4F2020002A9FFF78CFC9D
:104A3000FFE70020009043F64000C4F20200016846
:104A400041F400110160006800F40010009000982B
:104A5000FFE7FFE708B080BD40F60C30C2F200006F
:104A6000016801310160704780B543F60040C4F22F
:104A70000200016841F400710160016841F4806145
:104A80000160016841F48071016000F0C1F80F20FD
:104A900000F004F800F074F880BD000080B58CB020
:104AA0000B90002004900390FFE70020009043F655
:104AB0004000C4F20200016841F4807101600068A6
:104AC00000F4807000900098FFE706A802A900F0AB
:104AD000DBF909980490049820B9FFE700F004FA84
:104AE000059004E000F000FA40000590FFE705980B
:104AF0004DF68361C4F21B31A0FB01014FF0FF3082
:104B000000EB9140039040F67000C2F2000042F2C8
:104B10000001C4F20001016040F2E731C160039975
:104B20004160002101618160816101F08DFA8DF8A1
:104B300007009DF8070000BBFFE701F0DBFA8DF8E6
:104B400007009DF80700B8B9FFE72D2000F03EF8F8
:104B50000B980F280BD8FFE70B992D2000F040F899
:104B60000B9840F21801C2F20001086003E0012036
:104B70008DF80700FFE7FFE7FFE70CB080BD0000FE
:104B800082B0FFE70020019043F64400C4F2020027
:104B9000016841F480410160006800F480400190A8
:104BA0000198FFE7FFE70020009043F64000C4F2C1
:104BB0000200016841F080510160006800F08050FF
:104BC00000900098FFE702B07047000080B582B007
:104BD0008DF807009DF9070008F048FC02B080BD81
:104BE00010B584B08DF80F00029100200190009064
:104BF00008F056FC00909DF90F4000980299019A28
:104C000002F09CFE0146204608F052FC04B010BDA4
:104C100080B582B003200190019808F06BFC02B0CF
:104C200080BD000080B584B00290052001900298FC
:104C300020B9FFE701208DF80F0021E1019843F62C
:104C40000041C4F20201096801F00701884212D94B
:104C5000FFE7019843F60041C4F2020108700868BA
:104C600000F007000199884204D0FFE701208DF889
:104C70000F0005E1FFE702980078800700282AD599
:104C8000FFE7029800784007002809D5FFE743F6C0
:104C90000800C4F20200016841F4E0510160FFE73E
:104CA000029800780007002809D5FFE743F60800BE
:104CB000C4F20200016841F460410160FFE743F67D
:104CC0000800C4F20200016821F0F001029A926823
:104CD00011430160FFE702980078C00700286ED0FA
:104CE000FFE702984068012811D1FFE743F6000072
:104CF000C4F20200006800F400300021B1EB504F14
:104D000004D1FFE701208DF80F00B9E02CE00298F4
:104D10004068022805D0FFE702984068032811D1B7
:104D2000FFE743F60000C4F20200006800F00070E4
:104D30000021B1EB506F04D1FFE701208DF80F0087
:104D40009EE010E043F60000C4F20200006800F0AC
:104D500002000021B1EB500F04D1FFE701208DF8D4
:104D60000F008DE0FFE7FFE743F60800C4F2020002
:104D7000016821F00301029A526811430160FFF7B4
:104D8000DFFC0090FFE743F60800C4F20200006871
:104D900000F00C0002994968B0EB810F0ED0FFE7DC
:104DA000FFF7CEFC0099401A41F28931884204D3C2
:104DB000FFE703208DF80F0062E0E4E7FFE70198CA
:104DC00043F60041C4F20201096801F0070188427C
:104DD00012D2FFE7019843F60041C4F202010870C5
:104DE000086800F007000199884204D0FFE701201D
:104DF0008DF80F0044E0FFE7029800784007002894
:104E00000CD5FFE743F60800C4F20200016821F464
:104E1000E051029AD26811430160FFE702980078DE
:104E2000000700280DD5FFE743F60800C4F2020092
:104E3000016821F46041029A126941EAC2010160ED
:104E4000FFE700F075F843F60801C4F202010968B3
:104E5000C9B209094FF6E872C0F60002515CC840B9
:104E600040F20C01C2F20001086040F21800C2F2E8
:104E700000000068FFF712FE00208DF80F00FFE72A
:104E80009DF80F0004B080BD82B0019000910198A0
:104E90000F21016043F60800C4F20200016801F02E
:104EA0000301019A5160016801F0F001019A9160DB
:104EB000016801F4E051019AD160006800F460409B
:104EC000C0080199086143F60040C4F2020000687E
:104ED00000F007000099086002B0704740F20C0033
:104EE000C2F200000068704780B5FFF7F7FF43F695
:104EF0000801C4F202010968C1F3822140F21002E4
:104F0000C0F60102515CC84080BD000080B5FFF7CB
:104F1000E5FF43F60801C4F20201096889B2490BB2
:104F200040F21002C0F60102515CC84080BD000092
:104F300080B584B00020039002900190009043F669
:104F40000800C4F20200006800F00C0030B1FFE776
:104F5000042809D0FFE708280CD04FE042F20040B7
:104F6000C0F2F40000904FE042F20040C0F2F400C2
:104F7000009049E043F60400C4F20200016801F029
:104F80003F01039100684002002813D5FFE743F674
:104F90000400C4F202000068C0F3881042F200412D
:104FA000C0F2F401A0FB0101039A0023FDF775FE96
:104FB000029012E043F60400C4F202000068C0F35D
:104FC000881042F20041C0F2F401A0FB0101039AF3
:104FD0000023FDF762FE0290FFE743F60400C4F2EF
:104FE0000200006800F44030022101EBD030019053
:104FF00002980199B0FBF1F0009005E042F2004008
:10500000C0F2F4000090FFE7009804B080BD0000FB
:1050100080B586B00490049820B9FFE701208DF890
:10502000170050E304980078C007002800F0A5801E
:10503000FFE743F60800C4F20200006800F00C002D
:10504000042813D0FFE743F60800C4F2020000680A
:1050500000F00C0008281ED1FFE743F60400C4F25C
:10506000020000684002002815D5FFE743F6000063
:10507000C4F20200006800F400300021B1EB504F90
:1050800008D0FFE70498406820B9FFE701208DF8B9
:10509000170018E370E0FFE704984068B0F5803F20
:1050A00009D1FFE743F60000C4F20200016841F4B1
:1050B0008031016020E004984068B0F5A02F0DD148
:1050C000FFE743F60000C4F20200016841F48021CA
:1050D0000160016841F4803101600CE043F600009A
:1050E000C4F20200016821F480310160016821F4FA
:1050F00080210160FFE7FFE7FFE704984068E8B11F
:10510000FFE7FFF71DFB0390FFE743F60000C4F243
:105110000200006800F400300021B1EB504F0CD1C8
:10512000FFE7FFF70DFB0399401A652804D3FFE75B
:1051300003208DF81700C6E2E7E71CE0FFF700FB4D
:105140000390FFE743F60000C4F20200006800F499
:1051500000300021B1EB504F0CD0FFE7FFF7F0FA21
:105160000399401A652804D3FFE703208DF8170040
:10517000A9E2E7E7FFE7FFE7FFE704980078800789
:10518000002840F19680FFE743F60800C4F20200D1
:10519000006810F00C0F13D0FFE743F60800C4F2CC
:1051A0000200006800F00C0008282CD1FFE743F64D
:1051B0000400C4F2020000684002002823D4FFE784
:1051C00043F60000C4F20200006800F00200002173
:1051D000B1EB500F09D0FFE70498C068012804D054
:1051E000FFE701208DF817006DE243F60000C4F2DE
:1051F0000200016821F0F801049A126941EAC20133
:105200000160FFE754E00498C06870B3FFE7002036
:10521000C4F2472001210160FFF792FA0390FFE7F3
:1052200043F60000C4F20200006800F00200002112
:10523000B1EB500F0CD1FFE7FFF782FA0399401A48
:10524000032804D3FFE703208DF817003BE2E7E7CC
:1052500043F60000C4F20200016821F0F801049A4C
:10526000126941EAC201016021E00020C4F2472036
:1052700000210160FFF764FA0390FFE743F60000A6
:10528000C4F20200006800F002000021B1EB500FF0
:105290000CD0FFE7FFF754FA0399401A032804D310
:1052A000FFE703208DF817000DE2E7E7FFE7FFE7D0
:1052B000FFE704980078000700284BD5FFE7049823
:1052C000406918B3FFE740F68060C4F2472001212F
:1052D0000160FFF735FA0390FFE743F67400C4F26C
:1052E0000200006800F002000021B1EB500F0CD169
:1052F000FFE7FFF725FA0399401A032804D3FFE7D5
:1053000003208DF81700DEE1E7E722E040F6806039
:10531000C4F2472000210160FFF712FA0390FFE773
:1053200043F67400C4F20200006800F0020000219D
:10533000B1EB500F0CD0FFE7FFF702FA0399401AC8
:10534000032804D3FFE703208DF81700BBE1E7E74C
:10535000FFE7FFE7049800784007002840F1CE807F
:10536000FFE700208DF8070043F64000C4F202007A
:105370000068C000002815D4FFE7FFE70020009078
:1053800043F64000C4F20200016841F08051016020
:10539000006800F0805000900098FFE701208DF831
:1053A0000700FFE747F20000C4F200000068C005F4
:1053B000002822D4FFE747F20000C4F20000016891
:1053C00041F480710160FFF7BBF90390FFE747F2FA
:1053D0000000C4F200000068C00500280CD4FFE7FC
:1053E000FFF7AEF90399401A032804D3FFE703201F
:1053F0008DF8170067E1EAE7FFE7FFE704988068A8
:10540000012809D1FFE743F67000C4F202000168E9
:1054100041F0010101601FE00498806805280DD16A
:10542000FFE743F67000C4F20200016841F0040196
:105430000160016841F0010101600CE043F6700079
:10544000C4F20200016821F001010160016821F04D
:1054500004010160FFE7FFE7FFE704988068F8B107
:10546000FFE7FFF76DF90390FFE743F67000C4F222
:105470000200006800F002000021B1EB500F0ED1D5
:10548000FFE7FFF75DF90399401A41F2893188423D
:1054900004D3FFE703208DF8170014E1E5E71EE0D1
:1054A000FFF74EF90390FFE743F67000C4F20200E5
:1054B000006800F002000021B1EB500F0ED0FFE7B2
:1054C000FFF73EF90399401A41F28931884204D32B
:1054D000FFE703208DF81700F5E0E5E7FFE79DF80B
:1054E0000700012809D1FFE743F64000C4F202009B
:1054F000016821F080510160FFE7FFE704988069AF
:10550000002800F0DC80FFE743F60800C4F2020048
:10551000006800F00C00082800F08580FFE7049880
:10552000806902285CD1FFE76020C4F24720002197
:105530000160FFF705F90390FFE743F60000C4F2AE
:105540000200006800F000700021B1EB506F0CD039
:10555000FFE7FFF7F5F80399401A032804D3FFE7A4
:1055600003208DF81700AEE0E7E70498D0F81CC0E0
:10557000026A436A816A42EA0C0242EA8312C90360
:105580004FF6FF739943A1F580311143C06A41EA98
:10559000006043F60401C4F2020108606020C4F216
:1055A000472001210160FFF7CBF80390FFE743F6A6
:1055B0000000C4F20200006800F000700021B1EBAE
:1055C000506F0CD1FFE7FFF7BBF80399401A03288F
:1055D00004D3FFE703208DF8170074E0E7E721E02C
:1055E0006020C4F2472000210160FFF7A9F8039072
:1055F000FFE743F60000C4F20200006800F000700C
:105600000021B1EB506F0CD0FFE7FFF799F8039939
:10561000401A032804D3FFE703208DF8170052E057
:10562000E7E7FFE74AE004988069012804D1FFE733
:1056300001208DF8170046E043F60400C4F2020092
:105640000068029004988069012831D0FFE7029831
:1056500000F480000499C969884229D1FFE70298C3
:1056600000F03F000499096A884221D1FFE70298BF
:1056700047F6C07108400499496AB0EB811F17D101
:10568000FFE7029800F440300499896AC9034FF695
:10569000FF729143A1F58031884209D1FFE702985A
:1056A00000F070600499C96AB0EB016F04D0FFE7A5
:1056B00001208DF8170006E0FFE7FFE7FFE7002075
:1056C0008DF81700FFE79DF8170006B080BD0000B9
:1056D00080B582B040F2D070C2F200000090009815
:1056E00020B9FFE701208DF8070071E00098406ABB
:1056F00060B9FFE700984068B0F5827F01D1FFE70D
:1057000003E000980021C161FFE705E00098002157
:10571000016100984161FFE70098002181620098D3
:1057200090F8510040B9FFE70098002180F8501030
:10573000009800F051F8FFE70098022180F851101E
:1057400000980068016821F0400101600098D0F8DD
:1057500000C042688368C16802F4827203F40443A3
:105760001A4401F400611144026902F0020211447A
:10577000426902F001021144826902F4007211448C
:10578000C26902F038021144026A02F08002114339
:10579000806A00F400500843CCF800000098418B68
:1057A00001F004010268406A00F0100008445060F3
:1057B00000980068C16921F40061C161009800216E
:1057C00041650098012280F851208DF80710FFE70D
:1057D0009DF8070002B080BD80B588B0079000201A
:1057E000069005900490039002900798006843F695
:1057F0000041C4F20001884235D1FFE7FFE70020F5
:10580000019043F64000C4F20200016841F40041F7
:105810000160006800F4004001900198FFE7FFE795
:105820000020009043F63000C4F20200016841F00D
:1058300004010160006800F0040000900098FFE798
:105840004FF4E050029002200390002004900320C7
:1058500005900620069040F60000C4F2020002A95E
:10586000FEF772FDFFE708B080BD000080B588B08C
:1058700040F2D071C2F20001069105900120ADF80E
:1058800012004FF47A70039000208DF80700FFE7B4
:10589000069890F85000012804D1FFE702208DF807
:1058A0001F0028E10698012180F85010FFE7FFE76C
:1058B000FEF746FF0290BDF81200ADF8040006980E
:1058C00090F85100012804D0FFE702208DF807006E
:1058D00002E1059820B1FFE7BDF8120020B9FFE70B
:1058E00001208DF80700F7E00698032180F8511099
:1058F0000698002141650598069A1063BDF81200CC
:10590000069A9086BDF81200069AD08606988163A2
:10591000069881870698C1870698416406980164B5
:1059200006988068B0F5004F0DD1FFE70698006833
:10593000016821F04001016006980068016841F4A7
:1059400080410160FFE706980068006800F04000B1
:10595000402807D0FFE706980068016841F0400141
:105960000160FFE70698C068B0F5006F47D1FFE718
:105970000698406828B1FFE7BDF8040001280ED161
:10598000FFE706980168006B0088C8600698016B05
:10599000023101630698C18E0139C186FFE7FFE736
:1059A0000698C08E50B3FFE70698006880688007AD
:1059B00000280ED5FFE706980168006B0088C860D4
:1059C0000698016B023101630698C18E0139C186C8
:1059D00013E0FEF7B5FE0299401A0399884204D3FA
:1059E000FFE70398013018B9FFE7039820B9FFE7F4
:1059F00003208DF807006FE0FFE7D1E746E0069847
:105A0000406828B1FFE7BDF8040001280ED1FFE788
:105A100006980168006B007808730698016B0131E5
:105A200001630698C18E0139C186FFE7FFE706983A
:105A3000C08E50B3FFE70698006880688007002892
:105A40000ED5FFE706980168006B0078087306988A
:105A5000016B013101630698C18E0139C18613E0E3
:105A6000FEF76EFE0299401A0399884204D3FFE7BD
:105A70000398013018B9FFE7039820B9FFE7032026
:105A80008DF8070028E0FFE7D1E7FFE706980399C4
:105A9000029A01F087FF20B1FFE7069820214165B7
:105AA000FFE70698806870B9FFE7FFE700200090E5
:105AB00006980068C06800900698006880680090AA
:105AC0000098FFE7FFE70698406D20B1FFE701204F
:105AD0008DF80700FFE7FFE70698012180F85110D5
